:100000000C94F5010C941D020C941D020C941D021D
:100010000C941D020C941D020C941D020C941D02E4
:100020000C941D020C941D020C941D020C948D1353
:100030000C941D020C941D020C941D020C941D02C4
:100040000C94EA130C941D020C941D020C941D02D6
:100050000C941D020C941D020C941D020C941D02A4
:100060000C941D020C941D02081010102828444402
:1000700092828AA282443810101005084870A8F8AD
:100080007070505005080000004870A8F870150CFA
:10009000000000000000000000000000000024003C
:1000A000003800005400007C0000380000380000D8
:1000B0002800002803053F213F1208120A100A0EEB
:1000C0001C0E0C1E0C141A14161F161E131E1E1BBB
:1000D0001E1E1F1E3F213F3A2F3A173D173F213F5B
:1000E000181F02040A041F0E04040E1F0A1F0A0E22
:1000F0000E1F04110E2E252E2F2A2E262929021F0F
:1001000002081F08150E04040E150E15151B151BED
:10011000040604040C040000000017000300031F81
:100120000A1F16371A1904130A153A000300000EA5
:1001300011110E000A040A040E0400300004040425
:100140000010001804031F111F121F101D15171196
:10015000151F07041F17151D1F151D01011F1F1552
:100160001F17151F000A00003200040A110A0A0AAC
:10017000110A040115020E11171E051E1F150A0E85
:10018000110A1F110E1F15111F05010E111D1F044D
:100190001F111F1108100F1F041B1F10101F061F17
:1001A0001E040F0E110E1F09060E112E1F051A1226
:1001B0001509011F011F101F0F180F1F0C1F1B0413
:1001C0001B031C03191513001F11030418111F0032
:1001D0000201022020200001020C121E1F120C0C32
:1001E00012120C121F0C1A14041E05242A1E1F02C0
:1001F0001C141D1020201D1F0814111F101E041E8A
:100200001E021C0C120C3E0A040C123E1E040214A8
:10021000160A020F120E101E0E100E1E081E120CD1
:100220001226281E322A26041E21001F00211E0429
:100230000102013F213F0A4E6F2053442063617247
:1002400064206F720A6E6F204C4F414445522E4815
:1002500045580A0A153A45786974001D20466C61B4
:100260007368696E670A20206C6F616465722E2E58
:100270002E0A0A444F4E2754205455524E204F46C2
:100280004621006D560A0A504C454153450A5455C3
:10029000524E204F4646004C4F5720424154544541
:1002A00052590A001753440016137800161314000D
:1002B00015102000152010000000540A03E181866B
:1002C0007F3E186D830F0F0E0183866033186DC358
:1002D000198F1803C38E6033186DE330CF1803C332
:1002E0009E603630CDE360CF3006C79E7E3E30CD77
:1002F000B360CF300CC6F6603330D9B660CF33CFA1
:10030000CCF66061B0DB1E60CF30D86CE6C061B067
:10031000DB1E618F19986CC6C063B19B0E330F0F43
:10032000B078C6FF7E1F1B061E0F0500893008022D
:100330003802497868140000F6E8DBCFC3B8AEA4F1
:100340009B928A827B746E68625C57524E4945412B
:100350003E3A3734312E2C29272523211F1D1C1A04
:100360001917161514131211100F0E0D0C0B0A0984
:100370000807064500680100000500380168010013
:1003800000890385030101FF030101F70300000059
:100390000800020100000304070000000000000044
:1003A000000102040810204080010204081020010E
:1003B00002040810200404040404040404020202D9
:1003C00002020203030303030300000000230026CC
:1003D00000290000000000250028002B000000007C
:1003E00000240027002A00009A0511241FBECFEF29
:1003F000D8E0DEBFCDBF11E0A0E0B1E0E6E1F2E37E
:1004000002C005900D92AC35B107D9F723E0ACE5F9
:10041000B1E001C01D92A73FB207E1F713E0CAEEB9
:10042000D3E004C02297FE010E94F618C83ED1070F
:10043000C9F70E9404160C9409190C940000843525
:10044000D8F46033C8F4962F959595959595E82F37
:10045000FF27E7FDF095E051FE4F84E59802E00D9F
:10046000F11D1124808190E0677002C095958795F9
:100470006A95E2F78170089580E0089510925F0117
:100480008EE18093600188E290E090936201809316
:100490006101109263011092640110926501109243
:1004A000660181E08093670110926801089589E6F2
:1004B00091E00E94AE1088EE93E090935E018093ED
:1004C0005D010E943E026EE870E089E691E00E94C4
:1004D0003010109281010895E8E6F1E0808190E00B
:1004E000019660E570E00E949418808308958091E1
:1004F0006301863099F030F48530B1F49091600159
:1005000091500FC0873031F0883071F490916001C4
:10051000965007C090916001945003C09091600183
:1005200092509093600102C0882319F0815080930B
:1005300063010895EF92FF920F931F93CF93DF9380
:10054000D091600108E00D0FC0915F01602F8C2FEA
:100550000E941F02811108C014E01C0F602F812F20
:100560000E941F02882319F0109264012BC0DF5FE4
:10057000D093600180916401843018F48F5F809380
:10058000640110925C01E090640100915C010E1521
:10059000C8F4D091600188E0F82EFD0E6F2D8C2FED
:1005A0000E941F02811106C06F2D812F0E941F0221
:1005B000882321F00F5F00935C01E7CFDF5FD093CA
:1005C0006001F8CFDF91CF911F910F91FF90EF90D5
:1005D0000895EF920F931F93CF93DF93809167015C
:1005E000882389F0813019F5209165018AE0289FE0
:1005F0009001112426583F4FE12C00E0409160010A
:1006000060915F0110C0209165018AE0289F9001F0
:10061000112426583F4F60915F016150EE24E3940E
:1006200000E04091600187EB91E00E94670A8091B1
:100630006601882309F456C080916401811152C07B
:1006400062E087EB91E00E94AE07609160018091CB
:100650005F01815090916601990F890F8435E8F50B
:1006600097ED960F903DC8F1695F9091D601062FE6
:10067000059505950595C82FD0E0162F1770923077
:1006800029F40E941F028823B1F002C0911113C007
:10069000FE0184E50802E00DF11D1124E051FE4F3A
:1006A00081E090E0012E01C0880F0A94EAF780955E
:1006B0009081982311C0FE0184E50802E00DF11D30
:1006C0001124E051FE4F81E090E0012E01C0880F1F
:1006D0000A94EAF79081982B908361E087EB91E090
:1006E0000E94AE0780916801823058F098ED980F13
:1006F000923038F093ED980F923018F08A5582308E
:10070000B0F4409160014E5F90916501892F880F90
:10071000890F480F60915F016F5F23E087EB91E0E5
:10072000DF91CF911F910F91EF900C946008DF91B2
:10073000CF911F910F91EF9008950F9324E54DE213
:1007400060E087EB91E00E94600824E54EE260E003
:1007500087EB91E00E94600824E54FE260E087EBC0
:1007600091E00E94600824E540E360E087EB91E0BF
:100770000E94600820916101309162018BE690E057
:10078000821B930B8336910548F464E6621B08E0F4
:1007900028E04EE187EB91E00E9437080F91089521
:1007A0001F93CF93DF9310925C01C2E3D0E012E37A
:1007B00040915C01242F30E080915D0190915E01B9
:1007C000BE010E94941826173707FCF4209161019E
:1007D0003091620152E3459FC0011124821B930BAB
:1007E00007968336910558F4419F602D1124621BB2
:1007F00028E630E04DE187EB91E00E94E709809127
:100800005C018F5F80935C01D3CFDF91CF911F910B
:1008100008950F93CF93DF9398E0899FE00111240F
:10082000C45FDE4F00E020E04E8160E08EE891E0A2
:100830000E947B1120E0488161E08EE891E00E94F7
:100840007B112C8121954D8162E08EE891E00E9420
:100850007B112A812A534B8163E08EE891E00E944C
:100860007B1120E04F8169818EE891E0DF91CF918B
:100870000F910C94AC11DF92EF92FF920F931F93A4
:10088000CF93DF9366E083E791E00E94C906882357
:1008900021F089E691E00E942C1065E083E791E069
:1008A0000E94C906882381F08091630181110CC0E8
:1008B00080916501811108C085E00E94090488E0EB
:1008C000809363011092660140E062E083E791E06B
:1008D0000E94D206882331F180916701811104C002
:1008E00081E0809367014DC0D0916001F090650177
:1008F0000F2D000F000F0F0D0D0F10915F01C5E0C0
:10090000C10F602F8C2F0E941F028130D1F127E090
:10091000E22EED0E6E2D8C2F0E941F02813009F009
:1009200055C02FC040E060E083E791E00E94D2060E
:10093000882329F180916701813019F410926701B1
:1009400020C0C0916001E09065011E2D110F110FB4
:100950001E0D1C0FF0905F010FEF0F0D612F802F08
:100960000E941F02813069F097E0D92EDC0E6D2DB8
:10097000802F0E941F02813009F074C002C01092C3
:10098000660140E063E083E791E00E94D20688239D
:1009900021F081E080936501ACC0809165018130D8
:1009A00009F0A5C0D0916001C0915F016D2F8C2F1F
:1009B0000E941F02813009F49CC06D2F84E08C0FCF
:1009C0000E941F02813009F092C093C01435C8F60E
:1009D00080916601813011F081E001C082E0809356
:1009E0006601183210F481E01EC0C0916101D091FF
:1009F000620120915D0130915E012852310981E050
:100A0000C217D30784F4F816F9F01A5F602F812F0C
:100A10000E941F028130C1F06E2D812F0E941F02A3
:100A20008130A1F411C0F816B9F0C6E0C10F602FF3
:100A30008C2F0E941F02813079F06E2D8C2F0E9426
:100A40001F02813059F408C0219601C02296D0932C
:100A50006201C093610195CF1F5F01C01E5F1093BB
:100A60005F018FCFFF2009F48CCF80916601813028
:100A700011F081E001C082E08093660188E28F1569
:100A800010F481E019C0C0916101D091620181E050
:100A9000C932D1058CF0E81601F1FA94FA94612F6D
:100AA0008F2D0E941F028130C1F06D2D8F2D0E946D
:100AB0001F028130A1F411C0E81699F0FA94FA945B
:100AC000612F8F2D0E941F02813059F06D2D8F2DC7
:100AD0000E941F02813041F404C02197B8CF2297B1
:100AE000B6CF00935F014DCFF0925F014ACF1092D5
:100AF0006501DF91CF911F910F91FF90EF90DF90F3
:100B0000089589E691E00E94EB0D882391F00E9400
:100B10003B040E949D030E94E9020E946C020E9415
:100B2000770280916301843010F40E949A020C9441
:100B3000D00308951092BA011092B90180E491E0B7
:100B40009093B8018093B7010895CF93CFB7F894ED
:100B50008091EF01811127C0EFEBF3E08491EBEA84
:100B6000F3E09491E82FF0E0EE0FFF1FE352FC4F0B
:100B7000A591B4918C91892321F461E08AE00E94CF
:100B8000A41561E08AE00E946B158CB580618CBD74
:100B90008CB580648CBD61E08DE00E946B1561E0D6
:100BA0008BE00E946B158091EF018F5F8093EF01C6
:100BB000CFBFCF91089521E0FC012083089570E01C
:100BC00085E00C94E314AF92BF92CF92DF92EF9244
:100BD000FF920F931F93CF93DF93EC0189819A814A
:100BE0002FE0289F8001299F100D112485E10E948C
:100BF000C614800F911F24E0969587952A95E1F7FA
:100C00009A8389832881222391F1AC81AD80B12C14
:100C1000C12CD12CE885F9857F0100E010E06E81C0
:100C20007F819B0140E050E08617970728F0BC01C8
:100C3000E817F90708F4BF0180E090E01F921F92C7
:100C40001F92AF930E94FF166B830F900F900F902F
:100C50000F9070E085E0DF91CF911F910F91FF9091
:100C6000EF90DF90CF90BF90AF900C94E314DF91A2
:100C7000CF911F910F91FF90EF90DF90CF90BF9099
:100C8000AF900895FC018CE39FE09383828384E01E
:100C9000818381E084870895CF93DF93EC018C8575
:100CA0008F7151F584E10E94C614BC01882777FD3D
:100CB0008095982F0E94751726EE3FE34EEC50E486
:100CC0000E9401180E9447179B017B836A8361156C
:100CD000710581F084E08983FE0140E08481958183
:100CE0002817390710F449830AC04F5F3296443001
:100CF000A9F702C08FEF89838C858F5F8C87DF9186
:100D0000CF910895FC0188E0808389E0818387E0AA
:100D1000828386E0838384E0848382E0858381E12B
:100D200086830895DF92EF92FF920F931F93CF93E4
:100D3000DF937C01EC0100E010E0DD24DA9462E056
:100D400088810E946B1588810E94DA15F701E00FF7
:100D5000F11F892B21F487818F5F878308C08781EA
:100D6000882349F08F3F11F4178201C0D78260E0D9
:100D700088810E946B150F5F1F4F21960730110568
:100D8000F1F6DF91CF911F910F91FF90EF90DF90DF
:100D90000895FC01E60FF11D81E09781913009F083
:100DA00080E00895262F30E0FC01E20FF31F8781D9
:100DB000423028F481508E3F48F080E008958F3F04
:100DC000E1F3642F0E9474189130B9F781E008951F
:100DD0008EBD00000DB407FEFDCF8EB508956435BD
:100DE00008F047C0403308F044C0FC01878D242F31
:100DF000259525952595E62FFF27E7FDF09547706A
:100E0000823091F4DF01A051BE4F84E52802A00D8D
:100E1000B11D11248C9190E0042E02C09595879508
:100E20000A94E2F780958170811112C084E528024E
:100E3000E00DF11D1124E051FE4F81E090E0042E01
:100E400001C0880F0A94EAF780959081982310C01A
:100E500084E52802E00DF11D1124E051FE4F81E0F0
:100E600090E0042E01C0880F0A94EAF79081982B35
:100E7000908308951F93CF93DF93EC01162FF8947E
:100E800060E08E850E94A4158F8518161CF460E022
:100E90000E94A415812F0E94E8068F8518161CF465
:100EA00061E00E94A4157894DF91CF911F9108957D
:100EB00028EF31E0E0EFF1E0DF01A9011D924150A0
:100EC0005040E1F7DC0119961C9219971A961C9272
:100ED0000895DF92EF92FF920F931F93CF93DF93CA
:100EE000EC0180EFE82E81E0F82ED12C6D2D6064AE
:100EF000CE010E943A0760E8CE010E943A0761E005
:100F00008E850E94A4158F8518161CF460E00E943F
:100F1000A41500E010E0F701E00FF11F80810E94AE
:100F2000E8060F5F1F4F04351105A9F78F851816C6
:100F30001CF461E00E94A415D39484E5E80EF11C32
:100F400086E0D812D3CF60E4CE01DF91CF911F911C
:100F50000F91FF90EF90DF900C943A07FC01678FA0
:100F600060A30895FC01678F40A30895AF92BF92DC
:100F7000CF92DF92EF92FF920F931F93CF93DF9365
:100F8000EC01162FF42EE22EA02FBB27A7FDB09563
:100F9000A41BB10947FDB395B7FF03C0B195A19557
:100FA000B109EE2DFF27E7FDF095E11BF10917FDD3
:100FB000F395F7FF03C0F195E195F109BB24B394D4
:100FC000EA17FB0714F0B12C06C08E2DE02E082F77
:100FD000812F1F2DF82EE11634F48F2DF02E082FBF
:100FE000812F1E2DE82ECE2CC11AE02FFF27E7FD02
:100FF000F095EF19F109F7FCF395F7FF03C0F195B0
:10100000E195F109AE2EDC2CC7FE03C0DD24D3949C
:10101000DC0CD594F01614F401E00FC00FEF0DC0F6
:10102000BB2071F0412F6F2DCE010E94EF06DA1820
:10103000D7FE02C0F00EDC0C1F5FE1168CF703C078
:101040004F2D612FF1CFDF91CF911F910F91FF9025
:10105000EF90DF90CF90BF90AF9008950F93022F45
:101060000150040F262F0E94B6070F910895DF92BA
:10107000EF92FF920F931F93CF93DF937C01D42EB7
:10108000162FC22FDD27C7FDD095C60FD11D67FDD6
:10109000DA95812F992787FD90958C179D0744F449
:1010A000202F4D2D612FC7010E942E081F5FF1CF09
:1010B000DF91CF911F910F91FF90EF90DF900895F6
:1010C0000F932150260F042F0E94B6070F91089509
:1010D0008F929F92AF92BF92CF92DF92EF92FF9248
:1010E0000F931F93CF93DF93EC01E62ED42E122F94
:1010F000CC24C394C21AB22EB194BB0CF12C802F15
:101100008470A82E802F8270982E802F8870882E51
:101110000170F1160CF04DC0C7FC04C01150B3941F
:10112000B394CB0CF3948F2D880F8F5FC80EAA2039
:1011300071F0412F4D0D6F2D6E0DCE010E94EF0607
:101140004F2D4D0D612F6E0DCE010E94EF0699209F
:1011500071F04D2D411B6F2D6E0DCE010E94EF06DB
:101160004D2D4F19612F6E0DCE010E94EF06882084
:1011700071F04F2D4D0D6E2D611BCE010E94EF06BB
:10118000412F4D0D6E2D6F19CE010E94EF060023E9
:1011900009F4BFCF4D2D4F196E2D611BCE010E945A
:1011A000EF064D2D411B6E2D6F19CE010E94EF06EB
:1011B000B0CFDF91CF911F910F91FF90EF90DF9013
:1011C000CF90BF90AF909F908F9008958F929F92F5
:1011D000AF92BF92CF92DF92EF92FF920F931F9345
:1011E000CF93DF93EC01B62EA42E122FDD24D394DF
:1011F000D21AC22EC194CC0CFF24F394802F81709C
:10120000882E992493949E0C02708FEF8F0D811776
:10121000C4F5D7FC04C01150C394C394DC0C8F2DCB
:10122000880F8F5FD80E882099F0212F220F290D6B
:101230004A2D411B6F2D6B0DCE010E942E0823E01D
:101240002E0D4A2D4F19612F6B0DCE010E942E08D5
:10125000002399F0212F220F290D4A2D411B6B2DC0
:101260006F19CE010E942E0823E02E0D4A2D4F1932
:101270006B2D611BCE010E942E08F394E394E3943E
:10128000C4CFDF91CF911F910F91FF90EF90DF902E
:10129000CF90BF90AF909F908F9008959F92AF9204
:1012A000BF92CF92DF92EF92FF920F931F93CF9353
:1012B000DF93EC01B62EF42EA22EDE2CD194DD0CA1
:1012C0009D2C920E1E2D160F292D612F0E94600855
:1012D000CC24CA94C00ECF0C292D4C2D612FCE01E9
:1012E0000E946008D00EFE0C2D2D4F2D6B2DCE01CF
:1012F0000E942E08BA0C6FEF6B0D2D2D4F2DCE01D5
:101300000E942E0801E02E2D4F2D612FCE010E944C
:101310006808DE2CD094DB0C02E02E2D4F2D6D2DB5
:10132000CE010E946808CE1804E02E2D4C2D6D2DA4
:10133000CE010E94680808E02E2D4C2D612FCE01B1
:101340000E946808DF91CF911F910F91FF90EF905D
:10135000DF90CF90BF90AF909F900895AF92BF92D3
:10136000CF92DF92EF92FF920F931F93CF93DF9371
:10137000EC01A62EC42EB22EF02E1E2DE194EE0C02
:10138000D12ED60E2E2D2B0D6D2D0E943708FA94DE
:10139000FE0CC10E6FEF6A0D6B0D611BEF2C01E0AF
:1013A000212F4C2DCE010E94E60802E0212F4C2D6A
:1013B0006D2DCE010E94E608DF91CF911F910F9114
:1013C000FF90EF90DF90CF90BF90AF9008952F9255
:1013D0003F924F925F926F927F928F929F92AF92C5
:1013E000BF92CF92DF92EF92FF920F931F93CF9312
:1013F000DF931F92CDB7DEB78C01862E942EF901B4
:101400007490319664907901F2E0EF0EF11C872D13
:10141000992787FD9095DC011796B7FD17966D010A
:1014200093E0D594C7949A95E1F7212C312C512C57
:1014300020E8A22EB12C5614B4F520E0452C490C1E
:1014400027156CF5822F27FF02C087E0820F859554
:1014500085958595F101E80FF11D87FDFA95EE0D53
:10146000FF1DE491F0E0A22FA778A7FF03C0A150D1
:10147000A86FAF5FC50102C095958795AA95E2F761
:10148000DC01AE23BF23AB2B41F0442D622F680D4E
:10149000C80129830E94EF0629812F5FD1CF539481
:1014A0002C0C3D1CC8CF0F90DF91CF911F910F9155
:1014B000FF90EF90DF90CF90BF90AF909F908F9074
:1014C0007F906F905F904F903F902F9008952F9254
:1014D0003F924F925F926F927F928F929F92AF92C4
:1014E000BF92CF92DF92EF92FF920F931F93CF9311
:1014F000DF9300D000D000D0CDB7DEB76C01762EE0
:10150000642E01111CC0E1101AC026960FB6F89483
:10151000DEBF0FBECDBFDF91CF911F910F91FF9026
:10152000EF90DF90CF90BF90AF909F908F907F9083
:101530006F905F904F903F902F900C94E709F901C6
:101540004490319624905901F2E0AF0EB11C302F37
:101550003370842D992787FD90954C0127E0820EEA
:10156000911C97FE04C04C01EEE08E0E911C43E0EE
:10157000959487944A95E1F733243A94320C1E826D
:101580001D82F12C5FEF540D00E810E0F2140CF016
:1015900064C0552E20E024150CF056C0822F27FF82
:1015A00002C087E0820F859585958595ED81FE8146
:1015B000E80FF11D87FDFA95EA0DFB1DE491F0E0BF
:1015C000A22FA778A7FF03C0A150A86FAF5FC801E3
:1015D00002C095958795AA95E2F7DC01AE23BF235B
:1015E000AB2B79F1323039F0333041F0313049F4FE
:1015F000452D6F2D08C0652D432D05C0632D422F4D
:1016000002C04F2D622FEE2069F07E2D7370E0FE38
:1016100003C0942D961B692FE1FE05C0E22DE41B4B
:101620004E2F01C070E0670D460DC6012A833B8333
:101630005C8379830E94EF067981E72E5C813B8190
:101640002A812F5F5A94A7CFF3948D819E81880DB4
:10165000991D9E838D833A9499CF26960FB6F89460
:10166000DEBF0FBECDBFDF91CF911F910F91FF90D5
:10167000EF90DF90CF90BF90AF909F908F907F9032
:101680006F905F904F903F902F900895DC01FB0189
:1016900084918F5F14968C9314973196E491EF5F49
:1016A0001596EC9315976E5F7F4F5E967C936E93C5
:1016B0005D970895EF920F93CF93DF93EC014D87E1
:1016C0006C872E87E88A0F8781E088878F8F18A222
:1016D0008F8364EB70E0CE010E94460B0E94A5054B
:1016E0008CB58F7D8CBD8CB58C7F81608CBD8DB5AC
:1016F00081608DBD8CB58C608CBD61E08D850E9454
:101700006B1561E08C850E946B1561E08E850E94EF
:101710006B15888918161CF461E00E946B158F8583
:1017200018161CF461E00E946B15888918166CF479
:1017300060E00E94A4156AE070E080E090E00E9402
:10174000631461E088890E94A4158C85992787FD20
:101750009095FC01EB54FC4FE491F0E0EE0FFF1F7D
:10176000ED52FC4F259134913C8B2B8BFC01EF55B6
:10177000FC4F84918A8F8D85992787FD9095FC0178
:10178000EB54FC4FE491F0E0EE0FFF1FED52FC4FE5
:10179000259134913A8B298BFC01EF55FC4F8491B4
:1017A000898F8F85992787FD9095FC01EB54FC4F1D
:1017B000E491F0E0EE0FFF1FED52FC4F25913491C4
:1017C0003E8B2D8BFC01EF55FC4F84918B8F8E85CA
:1017D000992787FD9095FC01EB54FC4FE491F0E0D4
:1017E000EE0FFF1FED52FC4F25913491388F2F8B58
:1017F000FC01EF55FC4F84918C8F61E2CE010E9479
:101800003A0764E1CE010E943A078B8587FF02C048
:101810008FE78B876B856068CE010E943A0760E294
:10182000CE010E943A076CE0CE010E943A07CE0139
:10183000DF91CF910F91EF900C9469076F927F9297
:101840008F929F92AF92BF92CF92DF92EF92FF92D0
:101850000F931F93CF93DF93EC01162FF42EB02E2E
:10186000EF8C64350CF081C08FE284170CF47DC0DE
:10187000EC81F0E031970E9FC0010F9F900D112475
:10188000860F911D67FD9A95181619060CF06DC00C
:101890008D81809FC0011124840F911D47FD9A9571
:1018A000181619060CF061C0A62E962EC22ED12C49
:1018B0008A2D811B992787FD90952C8130E0821716
:1018C00093070CF051C0215031098217930779F02A
:1018D000C29ED001C39EB00DD29EB00D1124A80FA0
:1018E000B91FED8DFE8DEA0FFB1F749001C0712CA6
:1018F0008F2C6F2C282D2F19332727FD30958D81A4
:1019000090E0281739076CF570FE11C081E0B8121D
:1019100006C0482D6A2DCE010E94EF061EC00B2D79
:101920002B2D462D692DCE010E94370816C088A1A7
:101930009F8D891791F08F8F81E0B81206C0482DD6
:101940006A2DCE010E94EF0607C00B2D2B2D462DD0
:10195000692DCE010E943708EF8E76946B0C83942C
:10196000C9CF9B0CA394A4CFEF8EDF91CF911F9191
:101970000F91FF90EF90DF90CF90BF90AF909F902E
:101980008F907F906F9008950F93CF93DF93EC012A
:10199000262F6A3039F42D8198858A85299F800DFC
:1019A000112422C06D3011F108854A8569850E9495
:1019B0001E0C48855C812985549F200D11242987A0
:1019C0008F81882399F0332727FD309584E590E0B7
:1019D000459F801991091124821793073CF49D813A
:1019E0008A85499F800D11248A87198681E090E0BD
:1019F000DF91CF910F9108958F929F92AF92BF92F6
:101A0000CF92DF92EF92FF920F931F93CF93DF93CA
:101A1000EC015C0185E8A80EB11CD5018C918823EE
:101A200009F44DC08C3018F41CE0181B01C010E004
:101A3000FE01EA5AFF4F81E080836E01BEE4CB0EC7
:101A4000D11C60E0C6010E94AE074E01E3E58E0E98
:101A5000911CD4018C9103E0080F9DE2F92E4F2DCB
:101A6000481B410F23E0E22E24E560E0C6010E94FE
:101A7000AE0961E0C6010E94AE07F401808103E077
:101A8000080F4F2D481B410F24E560E0C6010E945E
:101A90004E09FE01E95AFF4F84E080833196D4015C
:101AA0008C91181B115D1083CD57DF4F68817981B0
:101AB000C6010E945116F501808181508083DF911B
:101AC000CF911F910F91FF90EF90DF90CF90BF903B
:101AD000AF909F908F9008950F931F93CF93DF93B4
:101AE000EC018C01025B1F4F40E061E0C8010E94E5
:101AF000B207FE01E95AFF4FDE01AE5ABF4F85E53E
:101B00009C91891B808331961082698D613009F424
:101B10003CC028F0888D653008F04EC049C0CE0129
:101B200085960E94331260E0CE010E94DF05C80155
:101B30000E945807FE01EA5AFF4F81E0808367E95F
:101B400072E0C8010E9451166A8D7B8D4AE050E018
:101B5000C8010E94F91663E872E0C8010E9451169C
:101B6000C8010E94690783B7817F846083BF83B700
:101B7000816083BF83B7816083BF889583B78E7F81
:101B800083BF83B78E7F83BF21C0C059DF4F488199
:101B900059816A817B814F705527662777274830A6
:101BA00051056105710510F467E009C068E707C0D9
:101BB000882361F06B5F03C0882341F06FE2C801A6
:101BC000DF91CF911F910F910C947616DF91CF91F9
:101BD0001F910F9108958F929F92AF92BF92EF92B3
:101BE000FF920F931F93CF93DF93EC017C010FE7DC
:101BF000E00EF11CF70180809180A280B3800E94EA
:101C0000341495018401061B170B280B390BB901FD
:101C1000A8015E011EE7A10EB11CF501808190E0D4
:101C2000A0E0B0E08E0106581F4F84179507A60765
:101C3000B70750F4F80180819181A281B381892B8B
:101C40008A2B8B2B09F040C0F80180819181A28101
:101C5000B381892B8A2B8B2BA9F57E01F5E2EF0E40
:101C6000F11CC7010E943012C7010E949D12C701DA
:101C70000E946113CE010E94FC0CCE010E946C0DEB
:101C80007E012EE4E20EF11CC7010E946907FE01ED
:101C9000EC5AFF4F8081811103C0C7010E94580791
:101CA0000E944014F8016083718382839383FE0154
:101CB000EC58FF4FCA58DF4F28813981621B730BE4
:101CC0007183608380E036C00E943414F501208166
:101CD000620F711D811D911DF701608371838283E5
:101CE0009383FE01E059FF4F4081518162817381EE
:101CF0004F5F5F4F6F4F7F4F40835183628373838A
:101D0000F80110821182128213820E944014FE0197
:101D1000EA58FF4F6083718382839383CE010E94D0
:101D2000E305CE010A960E949206CE0148960E94D3
:101D30004C0681E0DF91CF911F910F91FF90EF90C2
:101D4000BF90AF909F908F9008950F931F93CF9364
:101D5000DF938C01EC01C25BDF4FCE010E9458077C
:101D60006BE572E0CE010E945116CE010E94690718
:101D70008CB583608CBD8DB58E7F8DBD84E491E084
:101D8000EEEFFFE30995F801EC5AFF4F108266E38E
:101D900072E0CE010E948116CE010E946907065FA3
:101DA0001F4FC8010E94920664E0C8010E94C90644
:101DB000811107C062E370E080E090E00E9463144C
:101DC000F0CFDF91CF911F910F9108952F923F9205
:101DD0004F925F926F927F928F929F92AF92BF923B
:101DE000CF92DF92EF92FF920F931F93CF93DF93E7
:101DF000CDB7DEB729970FB6F894DEBF0FBECDBFC3
:101E0000998788871B012A013C018FE6680E711CA7
:101E1000F3018081882309F402C181E0E885F98516
:101E2000EA5AFF4F8083E885F985EB5AFF4F10820D
:101E3000E885F985EC5AFF4F1082E885F985108E08
:101E40008F01025B1F4F61E0C8010E94AE078885C9
:101E500099858D5A9F4F9C838B83C884D98497E53D
:101E6000C90ED11CE884F984E8E5EE0EF11C8885E2
:101E700099858E5A9F4F9A838983E885F985E05921
:101E8000FF4FFE83ED8388849984FAE08F0E911CC6
:101E9000A884B98485E2A80EB11C888599850E9422
:101EA000EB0D8823D1F3F1018491882321F0EB819C
:101EB000FC81508101C050E02AEB32E040E060E05C
:101EC000C8015F830E94E7095F814114510439F022
:101ED0004CE0450F920160E0C8010E94E709F6015D
:101EE00010828CE0F7018083B101C8010E94511675
:101EF000E981FA819081892F880F890F81958D5A08
:101F0000F6018083EB81FC819081892F880F890FF6
:101F10008195835DF7018083ED81FE81808184FF5F
:101F200003C064EB72E002C060EB72E0C8010E9483
:101F30008116E981FA819081892F880F890F819517
:101F40008D5AF6018083F70180818F5F8083E88559
:101F5000F98582A5882319F06CEA72E002C068EA6C
:101F600072E0C8010E948116E981FA819081892F6F
:101F7000880F890F81958D5AF6018083F701808142
:101F80008F5F808364EA72E0C8010E94811665E079
:101F9000C4010E94C906882351F0E885F98562A52D
:101FA0006F5FC5010E94DD13C5010E94C71364E085
:101FB000C4010E94C906811113C0F3012081822F40
:101FC00090E0A0E0B0E0ED81FE814081518162812E
:101FD0007381481759076A077B07A8F02F3F99F0CC
:101FE0008FEFF3018083088519850B5D1F4F60E03B
:101FF000C8010E94DA11C8010E94B11381E0E8858E
:10200000F985808F0CC066E0C4010E94C906882350
:1020100009F443CF888599850E94A50E34CF29966F
:102020000FB6F894DEBF0FBECDBFDF91CF911F91E9
:102030000F91FF90EF90DF90CF90BF90AF909F9067
:102040008F907F906F905F904F903F902F9008956A
:1020500040E050E00C94E60E68EB72E00C9428101F
:10206000AB0169EB72E00C94E60EE0E8F7E725912E
:10207000349181E02130304C09F080E00895CF9315
:10208000DF93EC010E9435109E01275A3F4FDE017D
:10209000A159BF4F882309F43CC0E6E9F7E78491D2
:1020A000F9018083E7E9F7E7E491EC83E8E9F7E7F2
:1020B000E491ED83E9E9F7E7859194919F838E831D
:1020C000EBE9F7E78591949199878887EDE9F7E740
:1020D000E491EBA7EEE9F7E7E491EAA7EFE9F7E788
:1020E000E491EC93E0EAF7E7859194919D8F8C8FD2
:1020F000E2EAF7E7859194919F8F8E8FE4EAF7E704
:102100008591949199A388A3E6EAF7E78591949144
:1021100020C08CE3F90180831C822FEF2D8380E2A5
:1021200093E09F838E8384ED93E09987888781E095
:102130008BA78AA72C938CEA9DE09D8F8C8F8EEDC8
:102140009DE09F8F8E8F84E79EE099A388A38CE308
:102150009FE09BA38AA3DF91CF910895CF92DF9256
:10216000EF920F93CF93DF93EC01FC01E258FF4F06
:1021700082E38083349741E050E060E070E0408388
:102180005183628373833B978FEF8083CE010E94DC
:102190003F10CE010E94DB056FEFCE010E94DF05EC
:1021A0006E018AE0C80ED11CC6010E948206C601DB
:1021B0000E949206CE0148960E9442060EE0E02E52
:1021C0000FE020E14BE06DE0CE01825B9F4F0E946B
:1021D0005A0BA596CE010E94461165E0C6010E94E9
:1021E000C906882351F060E0CE01DF91CF910F91B5
:1021F000EF90DF90CF900C94DD1340E06AE273E043
:10220000CE01DF91CF910F91EF90DF90CF900C94A2
:10221000E511CF93DF9350E0FA01EE0FFF1FE80FB7
:10222000F91F37852089E32FF22FE60FF11DE60F06
:10223000F11D25913491FA01EE0FFF1FE80FF91FF0
:1022400030A3278FF90165917491FC01D481D69F49
:10225000C02D1124E40FF51FC1A3F901A591B4917C
:102260006B2F70E0EC2FF0E0DC01A40FB51F6E17B0
:102270007F0720F4F90125913491C32FCD9FC02D04
:1022800011249296CC93DF91CF91089521E0FC0127
:10229000248324E020A721E833E0308B278740E027
:1022A00060E00E94091161E070E083E00E94E314A5
:1022B000E1EBF0E08081887F81608083F894109268
:1022C0008000E1E8F0E01082109285001092840016
:1022D00088E191E0909389008093880080818860F4
:1022E0008083808181608083EFE6F0E0808182607E
:1022F0008083789408950F93FC01862F642F011139
:1023000029C08230D1F048F4882391F0813011F552
:1023100040E0CF010F910C9409118330A9F0843073
:10232000C9F48481489F602D1124658F268F12C0C7
:102330004B3008F06AE0668B0DC08481489F602DA9
:102340001124618F228F06C08481489F602D112443
:10235000638F248F0F910895FC0121110EC0648BAF
:102360008481489F402D1124458B15A214A213A2ED
:1023700081E0878B8093EC03108E08958091EC03AD
:10238000882319F08091E90301C080E08093B400B4
:102390000895FC0161110DC0178A158A14A213A2B9
:1023A000108E1092E9031092EA031092EC030C9441
:1023B000BE110895CF93DF93EC01611103C00E9419
:1023C000C9111982DF91CF9108950F931F93CF9375
:1023D000DF93EC018B0141110EC060E00E94DA1125
:1023E0001E870D871B8A1A8A81E0898389E08E8B7C
:1023F000198E1B8E1D8EDF91CF911F910F91089525
:10240000CF93DF93EC01611128C08881882329F1E3
:102410008981811122C089852F819885E22FF92F2A
:10242000E80FF11DE80FF11D859194918F3F2FEF7B
:10243000920711F4188211C09C879927880F991F61
:10244000EA85FB85E80FF91F6591749140E0CE01A4
:102450000E94E51189858F5F8987DF91CF9108956B
:1024600060E00C94001260E00C94DA110F93CF93AB
:10247000DF93EC0161115DC08981882309F459C0A3
:102480008D89811156C02D853E858A899B89880F4B
:10249000991F820F931FFC01859194910097D1F4AD
:1024A0008989882321F01B8A1A8AF90111C01982AF
:1024B000888160E0882331F0CE010E9400128A8971
:1024C0009B8925C0CE01DF91CF910F910C94C9114A
:1024D00085919491BC01769567957695679580FF77
:1024E0001DC0AC01A6E056954795AA95E1F7292FA6
:1024F00026952695269520514F716F7000E0CE01EC
:102500000E947B118A899B8901969B8B8A8B880FFD
:10251000991FED85FE85E80FF91FDACF492F6F73FC
:1025200020E0CE010E94AC118A899B8901969B8B89
:102530008A8BDF91CF910F91089560E00C94361251
:10254000CF93DF93EC016111B9C08F89882309F41F
:10255000B5C08D89811105C0CE01DF91CF910C945A
:10256000C91181508D8B8DA1811138C08BA19CA187
:1025700001969C01220F331FEF8DF8A1E20FF31F8C
:1025800025913491422F47704EA3A90163E05695DF
:1025900047956A95E1F7BA0176956795232F2695B9
:1025A00026952FA36F732C81629F602D11246DA33C
:1025B00041704093E8039CA38BA329A130E08217CC
:1025C000930760F08AA1882329F0281B31093CA3D6
:1025D0002BA304C060E0CE010E94C9118DA18150DF
:1025E0008DA3288D2F5F288F4C893FA1340F8C85B8
:1025F000380F3A836B8D662361F070E0822F992744
:1026000087FD90950E9494188C8D869F300D112423
:102610003A838A8190E0CB966BE370E00E94941835
:102620008A833E893B83698D662371F0772767FD36
:102630007095822F992787FD90950E9494188A8D16
:10264000869F300D11243B836D8D662391F0822F80
:10265000992787FD909570E00E949418CB0162E065
:1026600070E00E9494182E8D9B81289F900D11245C
:102670009B838B814F3339F08A300CF089E087FDE2
:1026800080E08B8301C01B82F894EA81F0E0E85C73
:10269000FC4FE491E093EB0398A58D81989F802DEA
:1026A00011249B81899F802D11249EA1899F802DBB
:1026B00011248093EA038093E9037894DF91CF910A
:1026C000089560E00C94A0126091EA03662321F162
:1026D0008091ED038F5F8093ED039091EB03891759
:1026E000D8F08091EC0391E089278093EC0310925D
:1026F000ED038091E803882369F090910A0183E457
:10270000989F802D1124895B80930A010E94741880
:102710009093E9030C94BE1108951F920F920FB687
:102720000F9211242F933F934F935F936F937F9357
:102730008F939F93AF93BF93EF93FF930E94641384
:10274000FF91EF91BF91AF919F918F917F916F9189
:102750005F914F913F912F910F900FBE0F901F905F
:102760001895CF93DF93EC0160E00E94DA1189E7BE
:1027700093E09E878D871B8A1A8A81E0898389E08E
:102780008E8B198E1B8E1D8EDF91CF910895CF9366
:10279000DF93EC0160E00E94DA1183E793E09E870B
:1027A0008D871B8A1A8A81E0898389E08E8B198E36
:1027B0001B8E1D8EDF91CF910895FC01862F9927E6
:1027C00087FD9095668170E06F5F7F4F0E9494183F
:1027D000858308951F920F920FB60F9211242F93A5
:1027E0003F938F939F93AF93BF938091EF0390910B
:1027F000F003A091F103B091F2033091EE0323E0D6
:10280000230F2D3720F40196A11DB11D05C026E828
:10281000230F0296A11DB11D2093EE038093EF03B9
:102820009093F003A093F103B093F2038091F3032C
:102830009091F403A091F503B091F6030196A11DC8
:10284000B11D8093F3039093F403A093F503B09329
:10285000F603BF91AF919F918F913F912F910F9070
:102860000FBE0F901F9018952FB7F8946091EF034B
:102870007091F0038091F1039091F2032FBF0895BE
:102880003FB7F8948091F3039091F403A091F5037E
:10289000B091F60326B5A89B05C02F3F19F001960D
:1028A000A11DB11D3FBF6627782F892F9A2F620F78
:1028B000711D811D911D42E0660F771F881F991FB2
:1028C0004A95D1F70895CF92DF92EF92FF92CF937E
:1028D000DF936B017C010E944014EB01C114D10411
:1028E000E104F10489F00E9446170E9440146C1B19
:1028F0007D0B683E734090F381E0C81AD108E1086F
:10290000F108C851DC4FEACFDF91CF91FF90EF90F3
:10291000DF90CF900895789484B5826084BD84B5AB
:10292000816084BD85B5826085BD85B5816085BDCA
:10293000EEE6F0E0808181608083E1E8F0E01082E3
:10294000808182608083808181608083E0E8F0E024
:10295000808181608083E1EBF0E08081846080830E
:10296000E0EBF0E0808181608083EAE7F0E0808145
:1029700084608083808182608083808181608083A5
:102980008081806880831092C10008958E3008F0A5
:102990008E50877020910B0190E4299F90011124A3
:1029A000822B80937C0080917A00806480937A00EF
:1029B00080917A0086FDFCCF80917800209179008B
:1029C00090E0922B08951F93CF93DF93182FEB0184
:1029D00061E00E946B15209711F460E004C0CF3FC6
:1029E000D10539F461E0812FDF91CF911F910C94D3
:1029F000A415E12FF0E0E357FC4FE491E330F9F048
:102A000048F4E130B9F0E230A1F584B5806284BDCC
:102A1000C8BD34C0E730E9F0E83019F1E43049F5D9
:102A200080918000806280938000D0938B00C0935F
:102A30008A0024C084B5806884BDC7BD1FC0809152
:102A40008000806880938000D0938900C0938800C4
:102A500015C08091B00080688093B000C093B3002F
:102A60000DC08091B00080628093B000C093B4002C
:102A700005C0C038D1050CF0B5CFAFCFDF91CF91F5
:102A80001F910895833081F028F4813099F08230CD
:102A9000A1F008958730A9F08830B9F08430D1F4DE
:102AA000809180008F7D03C0809180008F7780931C
:102AB0008000089584B58F7702C084B58F7D84BD72
:102AC00008958091B0008F7703C08091B0008F7D12
:102AD0008093B0000895CF93DF9390E0FC01EF5511
:102AE000FC4F2491FC01EB54FC4F8491882349F165
:102AF00090E0880F991FFC01E352FC4FA591B4911F
:102B00008D529C4FFC01C591D4919FB7611108C0B3
:102B1000F8948C91209582238C93888182230AC01B
:102B2000623051F4F8948C91322F309583238C933A
:102B30008881822B888304C0F8948C91822B8C939B
:102B40009FBFDF91CF9108950F931F93CF93DF9392
:102B50001F92CDB7DEB7282F30E0F901E357FC4FC5
:102B60008491F901EF55FC4F1491F901EB54FC4F9E
:102B700004910023C9F0882321F069830E94421543
:102B80006981E02FF0E0EE0FFF1FED52FC4FA591A1
:102B9000B4919FB7F8948C91611103C01095812373
:102BA00001C0812B8C939FBF0F90DF91CF911F911C
:102BB0000F910895CF93DF93282F30E0F901E35769
:102BC000FC4F8491F901EF55FC4FD491F901EB547E
:102BD000FC4FC491CC2391F081110E944215EC2F3F
:102BE000F0E0EE0FFF1FE753FC4FA591B4912C913D
:102BF0002D2381E090E021F480E002C080E090E0AD
:102C0000DF91CF91089508950E948B140E940316BE
:102C10000E945702C0E0D0E00E9481052097E1F3B6
:102C20000E940000F9CFCF92DF92EF92FF920F93B4
:102C30001F93CF93DF936C017A01EB01E60EF71E31
:102C400000E010E0CE15DF0561F06991D601ED914D
:102C5000FC910190F081E02DC6010995080F191F24
:102C6000F1CFC801DF91CF911F910F91FF90EF90AD
:102C7000DF90CF9008956115710581F0DB010D9013
:102C80000020E9F7AD0141505109461B570BDC010B
:102C9000ED91FC910280F381E02D099480E090E0B9
:102CA0000895EF92FF920F931F93CF93DF938C01C0
:102CB000FB01C0E0D0E064917F018FEFE81AF80AD1
:102CC000662361F0D801ED91FC910190F081E02D37
:102CD000C8010995C80FD91FF701EDCFCE01DF91CB
:102CE000CF911F910F91FF90EF900895DC01ED912E
:102CF000FC910190F081E02D09946BE471E00C945B
:102D00003B160F931F93CF93DF93EC010E94511654
:102D10008C01CE010E947D16800F911FDF91CF9113
:102D20001F910F9108958F929F92AF92BF92CF9271
:102D3000DF92EF92FF920F931F93CF93DF93CDB764
:102D4000DEB7A1970FB6F894DEBF0FBECDBF7C01F2
:102D5000C42EE52FCB01D22E19A221E02D1510F0A3
:102D60002AE0D22E8E010F5D1F4F8D2C912CA12CAD
:102D7000B12C6C2D7E2FA50194010E94A8188C2DDA
:102D8000D29E80191124015011098A3014F4805DFB
:102D900001C0895CF8018083211531054105510589
:102DA00021F0C22EE32FCA01E4CFB801C7010E946F
:102DB0003B16A1960FB6F894DEBF0FBECDBFDF91D4
:102DC000CF911F910F91FF90EF90DF90CF90BF9028
:102DD000AF909F908F9008952115310541F4DC014B
:102DE000ED91FC910190F081E02D642F09940C94F9
:102DF00093169A01AB0160E070E00C94EC164F92D0
:102E00005F926F927F92AF92BF92CF92DF92EF92DA
:102E1000FF920F931F93CF93DF93CDB7DEB72901B6
:102E20003A01621B730B840B950B29893A894B89F4
:102E30005C892A193B094C095D09298B3A8B4B8B1C
:102E40005C8B9B01AC0169897A898B899C890E9482
:102E50006418E418F50806091709A80197010E94EB
:102E6000CA182A0D3B1D4C1D5D1DCA01B901DF9119
:102E7000CF911F910F91FF90EF90DF90CF90BF9077
:102E8000AF907F906F905F904F900895089598D085
:102E900088F09F5790F0B92F9927B751A0F0D1F043
:102EA000660F771F881F991F1AF0BA95C9F712C0CD
:102EB000B13081F09FD0B1E008959CC0672F782F8A
:102EC0008827B85F39F0B93FCCF386957795679539
:102ED000B395D9F73EF490958095709561957F4FA5
:102EE0008F4F9F4F0895E89409C097FB3EF490954B
:102EF0008095709561957F4F8F4F9F4F9923A9F0D3
:102F0000F92F96E9BB279395F69587957795679561
:102F1000B795F111F8CFFAF4BB0F11F460FF1BC0A5
:102F20006F5F7F4F8F4F9F4F16C0882311F096E938
:102F300011C0772321F09EE8872F762F05C06623E6
:102F400071F096E8862F70E060E02AF09A95660F9F
:102F5000771F881FDAF7880F9695879597F9089558
:102F600097F99F6780E870E060E008959FEF80EC3C
:102F7000089500240A9416161706180609060895DF
:102F800000240A9412161306140605060895092E45
:102F90000394000C11F4882352F0BB0F40F4BF2BB4
:102FA00011F460FF04C06F5F7F4F8F4F9F4F0895F4
:102FB00057FD9058440F551F59F05F3F71F04795EA
:102FC000880F97FB991F61F09F3F79F087950895CF
:102FD000121613061406551FF2CF4695F1DF08C0EE
:102FE000161617061806991FF1CF8695710561050B
:102FF00008940895E894BB2766277727CB0197F9B3
:1030000008950BD0C4CFB5DF28F0BADF18F09523B0
:1030100009F0A6CFABCF1124EECFCADFA0F3959F66
:10302000D1F3950F50E0551F629FF001729FBB27AF
:10303000F00DB11D639FAA27F00DB11DAA1F649F5B
:103040006627B00DA11D661F829F2227B00DA11D0E
:10305000621F739FB00DA11D621F839FA00D611D94
:10306000221F749F3327A00D611D231F849F600DB5
:10307000211D822F762F6A2F11249F5750408AF0EE
:10308000E1F088234AF0EE0FFF1FBB1F661F771F7A
:10309000881F91505040A9F79E3F510570F060CFB6
:1030A000AACF5F3FECF3983EDCF386957795679562
:1030B000B795F795E7959F5FC1F7FE2B880F911D98
:1030C0009695879597F90895DB018F939F930E94BA
:1030D000E918BF91AF91A29F800D911DA39F900D04
:1030E000B29F900D11240895991B79E004C0991F97
:1030F000961708F0961B881F7A95C9F78095089552
:10310000AA1BBB1B51E107C0AA1FBB1FA617B7070D
:1031100010F0A61BB70B881F991F5A95A9F7809529
:103120009095BC01CD01089597FB072E16F40094ED
:1031300007D077FD09D00E94801807FC05D03EF427
:10314000909581959F4F0895709561957F4F089553
:10315000A1E21A2EAA1BBB1BFD010DC0AA1FBB1F9B
:10316000EE1FFF1FA217B307E407F50720F0A21B0D
:10317000B30BE40BF50B661F771F881F991F1A947A
:1031800069F760957095809590959B01AC01BD01A4
:10319000CF010895052E97FB1EF400940E94E118BC
:1031A00057FD07D00E94A81807FC03D04EF40C94DA
:1031B000E11850954095309521953F4F4F4F5F4F07
:1031C000089590958095709561957F4F8F4F9F4F93
:1031D00008950E94FA18A59F900DB49F900DA49F8A
:1031E000800D911D11240895EE0FFF1F0590F4919D
:1031F000E02D0994A29FB001B39FC001A39F700D61
:10320000811D1124911DB29F700D811D1124911DEE
:063210000895F894FFCFC1
:103216000000F703800001000000010101113500E4
:10322600070002030111350007000A03011A2901EC
:103236000103071400002A010102071400360000EA
:103246000000070100004101010107050000000020
:10325600C40C13164C4F41444552000D0A006E61D2
:0C3266006E00696E66006F7666002E0038
:00000001FF
