:100000000C9488020C94B0020C94B0020C94B002D0
:100010000C94B0020C94B0020C94B0020C94B00298
:100020000C94B0020C94B0020C94B0020C946D1CB1
:100030000C94B0020C94B0020C94B0020C94B00278
:100040000C94CA1C0C94B0020C94B0020C94B00234
:100050000C94B0020C94B0020C94B0020C94B00258
:100060000C94B0020C94B0021804FFFFFFFFFFFFD6
:10007000AAAAAA5555551804FFFFFF28A28A4514BD
:1000800051FFFFFF1804FFFFFF249249492492FF0C
:10009000FFFF1804FFFFFFFFFFFF492492B6DB6D4F
:1000A0001804FFFFFFBBBBBBFFFFFFFFFFFF0808FC
:1000B000FFBBFFFFFFBBFFFF0000000008080F0BA6
:1000C0000F0FFFBBFFFF000000000808F0B0F0F0CA
:1000D000FFBBFFFF0000000008047ECFBFFF000051
:1000E0000000000000000404F0B0F0F00000000088
:1000F0000000000010071C00630080BC80428801E3
:1001000040013FFE000008087088A87070705050D1
:1001100008087088A8707070501008087088A8705F
:100120007070101008087088A8707070202008087F
:100130007088A8707070404008087088A87070704F
:1001400050400601540601280805384454FE7C0B33
:100150000514003E007700BE80A2800B050A001F38
:10016000007B80BF4001400B050A001F007BC0BF21
:10017000A0A0A00B0514003E007780BF40A00005A2
:10018000084870A8F87070505005084870A8F870BA
:1001900070488805084870A8F8707020200508008D
:1001A00000004870A8F870180C0000000000000063
:1001B000000000000000002400003800005400008F
:1001C0007C00003800003800002800002803053FAC
:1001D000213F1208120A100A0E1C0E0C1E0C141AD3
:1001E00014161F161E131E1E1B1E1E1F1E3F213F10
:1001F0003A2F3A173D173F213F181F02040A041FE8
:100200000E04040E1F0A1F0A0E0E1F04110E2E25C7
:100210002E2F2A2E262929021F02081F08150E0438
:10022000040E150E15151B151B040604040C040002
:1002300000000017000300031F0A1F16371A1904D5
:10024000130A153A000300000E11110E000A040AE9
:10025000040E040030000404040010001804031FFE
:10026000111F121F101D151711151F07041F171539
:100270001D1F151D01011F1F151F17151F000A0047
:10028000003200040A110A0A0A110A040115020EBA
:1002900011171E051E1F150A0E110A1F110E1F151C
:1002A000111F05010E111D1F041F111F1108100F32
:1002B0001F041B1F10101F061F1E040F0E110E1F00
:1002C00009060E112E1F051A121509011F011F1014
:1002D0001F0F180F1F0C1F1B041B031C03191513E2
:1002E000001F11030418111F00020102202020002A
:1002F00001020C121E1F120C0C12120C121F0C1AEF
:1003000014041E05242A1E1F021C141D1020201D6B
:100310001F0814111F101E041E1E021C0C120C3E7E
:100320000A040C123E1E040214160A020F120E10CA
:100330001E0E100E1E081E120C1226281E322A2611
:10034000041E21001F00211E040102013F213F0A5B
:100350004E6F2053442063617264206F720A6E6F87
:10036000204C4F414445522E4845580A0A153A45FB
:10037000786974001D20466C617368696E670A2095
:10038000206C6F616465722E2E2E0A0A444F4E2730
:1003900054205455524E204F464621000A0A153A21
:1003A00049676E6F7265006D560A0A504C4541539D
:1003B00045205455524E204F464620004C4F572062
:1003C00042415454455259212000175344001613FA
:1003D00078001613140015102000152010000000DE
:1003E000540A03E181867F3E186D830F0F0E01834F
:1003F000866033186DC3198F1803C38E6033186D70
:10040000E330CF1803C39E603630CDE360CF3006B3
:10041000C79E7E3E30CDB360CF300CC6F660333021
:10042000D9B660CF33CFCCF66061B0DB1E60CF3081
:10043000D86CE6C061B0DB1E618F19986CC6C063D2
:10044000B19B0E330F0FB078C6FF7E1F1B061E0F29
:100450000500893008023802497868140000F6E87F
:10046000DBCFC3B8AEA49B928A827B746E68625C59
:1004700057524E4945413E3A3734312E2C292725D3
:1004800023211F1D1C1A1917161514131211100FF2
:100490000E0D0C0B0A09080706450068010000054F
:1004A00000380168010000AF04AB040101FF030143
:1004B00001F7030000000800020100000304070028
:1004C000000000000000000102040810204080012C
:1004D000020408102001020408102004040404048B
:1004E00004040402020202020203030303030300E2
:1004F000000000230026002900000000002500283D
:10050000002B0000000000240027002A00003F0DFF
:1005100011241FBECFEFD8E0DEBFCDBF11E0A0E0B9
:10052000B1E0EEE7F4E402C005900D92AC36B107FD
:10053000D9F725E0ACE6B1E001C01D92A43EB207B8
:10054000E1F715E0C0E1D5E004C02297FE010E946A
:100550002A22CE30D107C9F70E94E41E0C943D2216
:100560000C9400008435D8F46033C8F4962F959528
:1005700095959595E82FFF27E7FDF095EB52FC4FF9
:1005800084E59802E00DF11D1124808190E06770F0
:1005900002C0959587956A95E2F78170089580E08D
:1005A00008958DE493E00E948E1967EA71E08DE46E
:1005B00093E00E9410191092650381E080934A0332
:1005C000089540914A03423009F055C184E190E01A
:1005D00090936D0180936C0177E270936E0110929D
:1005E0006F01909371018093700180E690E0909389
:1005F0007301809372011092740151E05093750160
:10060000409376018CE690E0909378018093770197
:1006100020E12093790110927A0190937C018093DC
:100620007B0180EA90E090937E0180937D0150935E
:100630007F01509380014093810188EA90E090937C
:1006400083018093820170938401109285019093BD
:1006500087018093860184EE90E0909389018093D6
:10066000880110928A0150938B0140938C0180EF96
:1006700090E090938E0180938D01EBE1E0938F01E8
:1006800010929001909392018093910184E291E005
:100690009093940180939301109295015093960149
:1006A0004093970180E691E090939901809398019F
:1006B00020939A0110929B0190939D0180939C013D
:1006C00088E991E090939F0180939E015093A0014F
:1006D0005093A1014093A20188E791E09093A40177
:1006E0008093A30164E26093A5011092A601909308
:1006F000A8018093A70180EB91E09093AA018093D9
:10070000A9014093AB015093AC014093AD0128EA9D
:1007100031E03093AF012093AE01F8E1F093B001E6
:100720001092B1013093B3012093B20124ED31E076
:100730003093B5012093B4014093B6015093B701B3
:100740004093B8019093BA018093B9016093BB01C3
:100750001092BC019093BE018093BD0188EE91E0A0
:100760009093C0018093BF014093C1015093C20197
:100770004093C30184EB91E09093C5018093C40141
:100780002CE02093C6011092C7019093C901809379
:10079000C80188EC91E09093CB018093CA0140930B
:1007A000CC015093CD014093CE0184E092E0909330
:1007B000D0018093CF017093D1011092D201909318
:1007C000D4018093D30188E292E09093D601809384
:1007D000D5011092D7015093D8014093D90188E5F3
:1007E00092E09093DB018093DA01E093DC011092B8
:1007F000DD019093DF018093DE0188E892E0909321
:10080000E1018093E0011092E2015093E3014093F3
:10081000E40188EA92E09093E6018093E501209359
:10082000E7011092E8019093EA018093E90180E1E9
:1008300093E09093EC018093EB015093ED01509382
:10084000EE014093EF012CEE32E03093F101209362
:10085000F0016093F2011092F3013093F5012093BF
:10086000F4019093F7018093F6014093F8015093BF
:10087000F9014093FA010895DF92EF92FF920F93EE
:100880001F93CF93DF93F12C8BE0E82E92E0D92ECB
:10089000CCE0D0E006E010E08CE08F1508F47CC0DE
:1008A0002F2D30E0E29EF001E39EF00D1124E4597B
:1008B000FE4F8185882309F468C08085813089F0E6
:1008C00018F0823089F142C0838190E001968770F0
:1008D000992783834EEF480F4430C0F580FD36C022
:1008E0002DC0838190E00196BE010E94C8218383C0
:1008F000928540815181490F511D415051095183C9
:100900004083863018F482818F5F8283E29EF001FB
:10091000E39EF00D1124E459FE4F83818630B0F040
:1009200082818150828312C0838190E00196B80158
:100930000E94C82183838350823040F442858081A5
:100940009181840F911D019791838083E29EF00134
:10095000E39EF00D1124E459FE4F408151818481C2
:100960009581481759070CF4D286E29EF001E39E68
:10097000F00D1124E459FE4F208131818681978149
:10098000821793073CF4128605C08381882311F0F7
:1009900081508383F39480CFF0924903DF91CF910C
:1009A0001F910F91FF90EF90DF900895BF92CF922B
:1009B000DF92EF92FF920F931F93CF93DF931092EA
:1009C00049031BE06CE0F62E7AE0B72EE091490374
:1009D000ED3008F09EC01E9FF0011124E459FE4F37
:1009E0008185882309F48FC080913F039091400353
:1009F000608171819C01275A3F4F261737070CF4FD
:100A000082C022563109621773070CF47CC022851C
:100A1000211131C020852130A1F058F0223009F099
:100A200072C02381B29E900111242A5F3E4F625012
:100A300038C023812695F29E90011124215B3E4F00
:100A40005CC0681B28E431E042818BE993E00E949E
:100A5000D511E09149031E9FF0011124E459FE4F86
:100A600083818170C82F80E0D82F9E01220F331F11
:100A70002C0F3D1F39C020852130E9F058F022307D
:100A800009F041C02381B29E900111242A5F3E4F9C
:100A90006E5F33C023812695F29E90011124215B65
:100AA0003E4F681BEE24E39400E042818BE993E023
:100AB0000E94071328C0681B28E431E042818BE9BB
:100AC00093E00E94D511E09149031E9FF00111248B
:100AD000E459FE4F838180FBCC24C0F8D12C9601D1
:100AE000220F331F2C0D3D1D2E5B3E4F42814A5F6E
:100AF000608180913F03681B02C0681B42818BE9C3
:100B000093E00E94D511809149038F5F8093490340
:100B10005DCFDF91CF911F910F91FF90EF90DF900C
:100B2000CF90BF900895EF920F93CF931092490307
:100B3000CEE080914903883508F03FC090E0FC0189
:100B4000EE0FFF1FE80FF91FEF5EFD4F6081A091D0
:100B50003F03B091400324E0629FC00111248A1B2F
:100B60009B0B48968437910510F52281660F660F1E
:100B70002A3019F02B3061F461506A1B4181440F17
:100B8000440F00E3262F8BE993E00E94DE0F0FC095
:100B9000C29F9001112428593F4F4181440F440FB7
:100BA0006A1BE12C00E08BE993E00E94071380911F
:100BB00049038F5F80934903BCCFCF910F91EF9092
:100BC00008950F930BE024E540E060E08BE993E0AB
:100BD0000E94B50F24E545E260E08BE993E00E94B6
:100BE000B50F60E08BE993E00E94670F07E02EE10C
:100BF00042E06BE18BE993E00E94B50F61E08BE985
:100C000093E00E94670F8CE18093A40383E08093BC
:100C1000A50380914A03813051F0833009F066C00A
:100C200064E171E08BE993E00F910C94561F6CE046
:100C300071E08BE993E00E94561F24EF30E04CE016
:100C400067E08BE993E00E94D51128E630E041E2AD
:100C500060E08BE993E00E94D51128E630E041E2A4
:100C600068E18BE993E00E94D51128E630E041E28B
:100C700060E38BE993E00E94D51128E630E041E281
:100C800068E48BE993E00E94D51127E631E04CE15E
:100C900063E18BE993E00E94D5112CEB30E049E150
:100CA0006FE28BE993E00E94D51126EE30E045E13A
:100CB00067E38BE993E00E94D51126EE30E049E12D
:100CC00067E38BE993E00E94D51126EE30E04DE119
:100CD00067E38BE993E00E94D5112AEC30E049E10B
:100CE0006BE38BE993E00F910C94D5110F9108956C
:100CF0001F93CF93DF9310924903C2E3D0E012E336
:100D000040914903242F30E080914B0390914C0394
:100D1000BE010E94C82126173707FCF420913F032B
:100D20003091400352E3459FC0011124821B930B75
:100D30000F968B36910558F4419F602D1124621B4C
:100D400024EF30E042E08BE993E00E94D5118091DE
:100D500049038F5F80934903D3CFDF91CF911F91D8
:100D6000089580914A03823009F05DC21092110209
:100D70008BE08093120210921302A3E0A09314025E
:100D800029E02093150295E09093160266E06093A7
:100D9000170280931802109219023CE030931A0255
:100DA00080931B0210921C0232E130931D0280934B
:100DB0001E0210921F0238E130932002809321021C
:100DC000109222023BE1309323022093240290935D
:100DD00025023EE1309326028093270210922802DA
:100DE00041E24093290238E030932A0290932B028B
:100DF00040932C0220932D0290932E0244E24093C4
:100E00002F02809330021092310248E24093320266
:100E100020933302909334024AE240933502809348
:100E200036021092370240E3409338028093390231
:100E300010923A0246E340933B0280933C021092A8
:100E40003D024CE340933E0230933F021092400239
:100E50004093410230934202EAE0E093430242E4CD
:100E600040934402309345021092460248E4409376
:100E7000470230934802109249024BE440934A02E1
:100E800090934B0290934C0240934D0260934E021C
:100E900090934F024EE4409350023093510280935E
:100EA000520240935302809354021092550241E53E
:100EB0004093560254E05093570271E070935802E9
:100EC00047E54093590280935A0210925B024CE529
:100ED00040935C0220935D0290935E024DE5409347
:100EE0005F02809360021092610243E640936202C7
:100EF000809363021092640249E6409365028093F6
:100F00006602109267024AE64093680230936902D3
:100F100070936A024DE640936B0290936C0270935B
:100F20006D024FE640936E0280936F021092700242
:100F300040E740937102309372027093730245E769
:100F40004093740280937502109276024EE74093AC
:100F5000770280937802109279024FE740937A02E9
:100F600020937B0290937C0244E840937D0280931F
:100F70007E0210927F024AE84093800280938102B1
:100F8000109282024DE84093830220938402909352
:100F9000850240E94093860280938702109288027E
:100FA000F1E9F093890247E040938A0290938B0223
:100FB000F0938C0230938D0290938E02F6E9F093B9
:100FC0008F023093900210929102F093920230932C
:100FD0009302E0939402FBE9F093950250939602FA
:100FE00070939702FCE9F093980230939902109263
:100FF0009A02F2EAF0939B0230939C0210929D02B7
:10100000F5EAF0939E0290939F029093A002F093D2
:10101000A1026093A2029093A302F8EAF093A402C3
:101020003093A5028093A602F093A7028093A802B2
:101030001092A902FDEAF093AA022093AB029093CA
:10104000AC02FEEAF093AD028093AE021092AF02C2
:10105000F3EBF093B0023093B1029093B202F093AD
:10106000B3022093B4029093B502F4EBF093B6026E
:101070008093B7021092B802F9EBF093B902209373
:10108000BA029093BB02FAEBF093BC028093BD02CC
:101090001092BE02F0ECF093BF028093C002109257
:1010A000C102F5ECF093C2022093C3026093C40224
:1010B000F6ECF093C5028093C6021092C702F7ECDB
:1010C000F093C8024093C9026093CA02F093CB0226
:1010D0002093CC029093CD02F9ECF093CE02E093F2
:1010E000CF025093D002FBECF093D1027093D20266
:1010F0004093D302F093D402A093D5029093D602EA
:10110000F093D7029093D8029093D902F093DA0229
:101110004093DB029093DC027CEC7093DD028093C1
:10112000DE021092DF027DEC7093E0026093E10238
:101130009093E2027FEC7093E3029093E402409379
:10114000E5027093E6024093E7029093E802709301
:10115000E902E093EA025093EB0271ED7093EC0226
:101160004093ED024093EE0272ED7093EF02809394
:10117000F0021092F1027BED7093F2028093F30281
:101180005093F4027EED7093F5023093F6022093B3
:10119000F70231EE3093F8024093F9022093FA02FD
:1011A0003093FB028093FC025093FD0234EE3093A7
:1011B000FE026093FF022093000337EE3093010399
:1011C000809302035093030338EE3093040360933B
:1011D0000503209306033BEE309307039093080327
:1011E000209309033DEE30930A0380930B03509341
:1011F0000C038EEE80930D0350930E0320930F0388
:1012000081EF80931003A0931103909312038093B6
:101210001303909314039093150380931603409344
:10122000170390931803089510923D038EE1809365
:101230003E031092400310923F031092410310921C
:1012400042031092430381E08093440310924503CC
:1012500083E08093460308950E9414090E94B1061A
:101260000E94E10280914A03823031F487EC93E0DE
:1012700090934C0380934B030895809143038330F4
:10128000F9F065E087E593E00E94720E81111092FB
:10129000430340E062E087E593E00E947B0E81110A
:1012A00008C040E060E087E593E00E947B0E882361
:1012B00039F080914303813071F081E080934303E2
:1012C0008091450390E0019660E570E00E94C8219E
:1012D00080934503089582E0F1CF65E087E593E0D0
:1012E0000E94720E882339F080914A038F5F8093A9
:1012F0004A030C942C0908952F923F924F925F92CB
:101300006F927F928F929F92AF92BF92CF92DF9215
:10131000EF92FF920F931F93CF93DF93CDB7DEB77A
:101320002E970FB6F894DEBF0FBECDBFA82EB62EF7
:10133000909143039A83909141039983E0913F03F5
:10134000F0914003FE87ED87D0903D03B096FE8379
:10135000ED83E0904B03F0904C031701FCE22F1A51
:1013600031084D845E848EE1480E511CF701F297DE
:10137000F887EF8390913E039B83862E880C8D0C1B
:10138000C0904203C90EE7E0CE0E8D2D90E09A8703
:10139000898799249394062F10E001501109992D03
:1013A000961B9B8710924803109247039A819330B3
:1013B00011F49093480399819530A8F080914803E7
:1013C000963071F020F4953071F481500AC0998103
:1013D000973021F0983039F4865003C0845001C012
:1013E000825080934803B11008C0ED85FE85329786
:1013F0000CF44EC0909247034BC0F2E0BF1210C0F5
:101400008DE18D1528F44214530414F4909247038F
:10141000EF81F8854E165F061CF0F2E0F09347036B
:10142000209148039B81290F2F5FA09E702C1124CF
:10143000672C680C9B85960D9C83622F892F2C87C7
:101440000E94B2022C8581114AC0622F862D0E9413
:10145000B202811144C06C2D8C810E94B2028111B4
:101460003EC06C2D862D0E94B202811138C0A09E14
:101470009001A19E300D112449855A85420F531FBA
:1014800057FD2DC0ED85FE85EE15FF0544F511C015
:101490009FE19D1538F4ED81FE81E215F30514F40A
:1014A00090924703FEE1FD1508F0BACF1092470372
:1014B000B7CF80914703813049F48D859E85280FF1
:1014C000391F3093400320933F030FC0813020F435
:1014D0007D0C70923D0309C08230D1F306C082E0DA
:1014E000A81203C0AA24A3945DCF2E960FB6F89439
:1014F000DEBF0FBECDBFDF91CF911F910F91FF9047
:10150000EF90DF90CF90BF90AF909F908F907F90A3
:101510006F905F904F903F902F90089580913E0381
:101520008153833338F4809146038150809346037E
:101530000C942C09089580913D03843528F0809106
:101540004A038F5F80934A0308950F931F93CF93AD
:10155000DF9380914103863091F120F4853009F4C6
:1015600041C054C0873049F0883009F04FC08091A5
:101570003E03865080933E0349C000913E03CCEF6A
:10158000C00FD0913D036C2F8D2F0E94B2028111AC
:1015900045C014E01D0F6C2F812F0E94B2028111F3
:1015A0003DC00350602F8D2F0E94B202811136C0C2
:1015B000602F812F0E94B202882331F12FC0C09189
:1015C0003E03C250D0913D036C2F8D2F0E94B2027A
:1015D000811126C06C2F84E08D0F0E94B2028823F7
:1015E00099F01EC0C0913E03C150D0913D036C2FB5
:1015F0008D2F0E94B202811115C06C2F84E08D0FD7
:101600000E94B20281110EC0C0933E03809141033B
:10161000823060F081508093410308C086E003C0AF
:1016200085E001C084E080934103F0CFDF91CF914A
:101630001F910F910895EF92FF920F931F93CF93F5
:10164000DF93D0914203C0913D03D1110EC0809130
:101650004303833051F410913E0367E0610F82E051
:101660008C0F0E94B2028130A1F000913E0318E07D
:10167000F12EF00E6F2D8C2F0E94B20281110DC041
:1016800014E01C0F6F2D812F0E94B202882351F0AD
:1016900004C0115010933E03E8CF10924203109201
:1016A000410329C00F5F00933E03D43018F4DF5F7D
:1016B000D093420310924903E09042030091490302
:1016C0000E15C8F4D0913E03B8E0FB2EFD0E6F2D31
:1016D0008C2F0E94B202811106C06F2D812F0E94B3
:1016E000B202882321F00F5F00934903E7CFDF5F49
:1016F000D0933E03F8CFDF91CF911F910F91FF90D0
:10170000EF900895EF920F9380914403882361F046
:101710008130E9F4209143038AE0289F900111244D
:1017200021583E4FE12C0AC0209143038AE0289FB4
:101730009001112421583E4FEE24E39400E04091A3
:101740003E0360913D038BE993E00E940713809173
:101750004503823058F098ED980F923038F093EDB1
:10176000980F923018F08A55823080F440913E03F1
:1017700080914303480F4E5F60913D036F5F23E00C
:101780008BE993E00F91EF900C94920F0F91EF90F3
:1017900008950F93CF93DF9398E0899FE001112480
:1017A000C45EDE4F00E020E04E8160E082E793E01F
:1017B0000E945B1A20E0488161E082E793E00E948A
:1017C0005B1A2C8121954D8162E082E793E00E94B3
:1017D0005B1A2A812A534B8163E082E793E00E94DF
:1017E0005B1A20E04F81698182E793E0DF91CF911E
:1017F0000F910C948C1A0F931F93CF93DF930E9439
:101800003D0966E087E593E00E94720E882321F08F
:101810008DE493E00E940C1940E063E087E593E0DB
:101820000E947B0E882321F083E08093430317C03E
:1018300080914303833009F0CBC0D0913E03C09127
:101840003D036D2F8C2F0E94B202813041F06D2F2D
:1018500084E08C0F0E94B202813009F0B9C065E0CB
:1018600087E593E00E94720E882309F479C0809185
:101870004303833009F474C080914103811170C027
:10188000D0913E031FEF1D0FC0913D03612F8C2FA0
:101890000E94B202811108C0612F84E08C0F0E9467
:1018A000B202882309F497C080914103853081F406
:1018B0001EEF1D0F612F8C2F0E94B202811108C0F4
:1018C000612F84E08C0F0E94B202882309F487C044
:1018D000809141038630F9F40CEF0D0F602F8C2FAF
:1018E0000E94B202811117C014E01C0F602F812FDB
:1018F0000E94B20281110FC00DEF0D0F602F8C2FCF
:101900000E94B202811107C0602F812F0E94B20293
:10191000882309F468C0809141038730F1F40AEF0D
:101920000D0F602F8C2F0E94B202811116C014E09F
:101930001C0F602F812F0E94B20281110EC0D55062
:101940006D2F8C2F0E94B202811107C06D2F812F45
:101950000E94B202882309F44AC085E00E94C90BA4
:1019600040E062E087E593E00E947B0E882361F00F
:1019700080914403811104C081E0809344033BC003
:101980008091430362E012C040E060E087E593E0AD
:101990000E947B0E8823A9F080914403813019F4C2
:1019A0001092440328C08091430360E0833011F417
:1019B00081E001C082E0DF91CF911F910F910C94E3
:1019C0007C09809143038330B1F01092430313C02C
:1019D0001092430344CF85E08093410365CF86E0B6
:1019E0008093410375CF87E08093410394CF88E0D3
:1019F00080934103B2CFDF91CF911F910F91089552
:101A00000F938DE493E00E94CB168823B1F180916F
:101A10004A0380FF05C00E94E1050F910C946D09F7
:101A20000E9493050E94A50A80914103843010F41E
:101A30000E941B0B0E94FB0B60E08BE993E00E946D
:101A4000670F00E324E540E060E08BE993E00E944B
:101A5000B50F61E08BE993E00E94670F0E94930548
:101A60000E94820B0E94D6040E948E0A0E949B0A4A
:101A70000E943C040F910C9478060F9108951092E7
:101A80009E0310929D0380E591E090939C038093C8
:101A90009B030895CF93CFB7F8948091D40381111D
:101AA00027C0E5EEF4E08491E1EDF4E09491E82FB5
:101AB000F0E0EE0FFF1FED5FFA4FA591B4918C910E
:101AC000892321F461E08AE00E94841E61E08AE0BB
:101AD0000E944B1E8CB580618CBD8CB580648CBD22
:101AE00061E08DE00E944B1E61E08BE00E944B1E86
:101AF0008091D4038F5F8093D403CFBFCF9108959B
:101B000021E0FC012083089570E085E00C94C31D62
:101B1000AF92BF92CF92DF92EF92FF920F931F93FB
:101B2000CF93DF93EC0189819A812FE0289F800178
:101B3000299F100D112485E10E94A61D800F911F81
:101B400024E0969587952A95E1F79A8389832881E1
:101B5000222391F1AC81AD80B12CC12CD12CE88530
:101B6000F9857F0100E010E06E817F819B0140E0FC
:101B700050E08617970728F0BC01E817F90708F42A
:101B8000BF0180E090E01F921F921F92AF930E94CE
:101B900033206B830F900F900F900F9070E085E0D3
:101BA000DF91CF911F910F91FF90EF90DF90CF9039
:101BB000BF90AF900C94C31DDF91CF911F910F91F7
:101BC000FF90EF90DF90CF90BF90AF900895FC0111
:101BD0008CE39FE09383828384E0818381E0848728
:101BE0000895CF93DF93EC018C819D81892B81F146
:101BF0008C858F7151F584E10E94A61DBC01882758
:101C000077FD8095982F0E94A92026EE3FE34EECA9
:101C100050E40E9435210E947B209B017B836A83D4
:101C20006115710581F084E08983FE0140E08481C3
:101C300095812817390710F449830AC04F5F3296FF
:101C40004430A9F702C08FEF89838C858F5F8C8722
:101C5000DF91CF910895FC0188E0808389E0818342
:101C600087E0828386E0838384E0848382E08583C7
:101C700081E186830895DF92EF92FF920F931F9385
:101C8000CF93DF937C01EC0100E010E0DD24DA94D7
:101C900062E088810E944B1E88810E94BA1EF70173
:101CA000E00FF11F892B21F487818F5F878308C0A4
:101CB0008781882349F08F3F11F4178201C0D782B2
:101CC00060E088810E944B1E0F5F1F4F21960730F6
:101CD0001105F1F6DF91CF911F910F91FF90EF90D9
:101CE000DF900895FC01E60FF11D81E097819130AE
:101CF00009F080E00895262F30E0FC01E20FF31F89
:101D00008781423028F481508E3F48F080E008956A
:101D10008F3FE1F3642F0E94A8219130B9F781E051
:101D200008958EBD00000DB407FEFDCF8EB5089559
:101D3000DC01643508F053C0403308F050C0909681
:101D40008C919097342F359535953595E62FFF2753
:101D5000E7FDF095242F2770823099F4DF01AB5214
:101D6000BC4F84E53802A00DB11D11248C9190E088
:101D7000022E02C0959587950A94E2F780958170AE
:101D800009C0833039F446271C968C91482740FFC0
:101D900003C014C0811112C084E53802E00DF11DAA
:101DA0001124EB52FC4F81E090E0022E01C0880F1D
:101DB0000A94EAF780959081982310C084E5380250
:101DC000E00DF11D1124EB52FC4F81E090E0022E5A
:101DD00001C0880F0A94EAF79081982B90830895A8
:101DE0001F93CF93DF93EC01162FF89460E08F855B
:101DF0000E94841E888918161CF460E00E94841ECC
:101E0000812F0E94910E888918161CF461E00E94AF
:101E1000841E7894DF91CF911F91089528EF31E0CF
:101E2000E5EDF3E0DF01A9011D9241505040E1F7DB
:101E3000DC0119961C9219971A961C920895DF924C
:101E4000EF92FF920F931F93CF93DF93EC018C855A
:101E50008F5F8C8785EDE82E83E0F82ED12C6D2DD9
:101E60006064CE010E94F00E60E8CE010E94F00E88
:101E700061E08F850E94841E888918161CF460E03A
:101E80000E94841E00E010E0F701E00FF11F808146
:101E90000E94910E0F5F1F4F04351105A9F7888925
:101EA00018161CF461E00E94841ED39484E5E80EA9
:101EB000F11C86E0D812D3CF60E4CE01DF91CF9140
:101EC0001F910F91FF90EF90DF900C94F00EFC01AA
:101ED00060A361A30895FC0160A341A30895CF927C
:101EE000DF92FF920F931F93CF93DF931F92CDB793
:101EF000DEB76C01062FF42E10E0121754F4412FB8
:101F00004F0D602FC60129830E94980E1F5F298103
:101F1000F4CF0F90DF91CF911F910F91FF90DF9041
:101F2000CF900895CF92DF92FF920F931F93CF939C
:101F3000DF931F92CDB7DEB76C01062FF42E10E0B1
:101F4000121754F4612F600F4F2DC60129830E9490
:101F5000980E1F5F2981F4CF0F90DF91CF911F91D1
:101F60000F91FF90DF90CF900895DF92EF92FF9254
:101F70000F931F93CF93DF93EC01E62ED22EF42E16
:101F8000112707FD1095040F111D47FD1A958F2D80
:101F9000992787FD90958017910744F42D2D4F2D9B
:101FA0006E2DCE010E94920FF394F1CFDF91CF916D
:101FB0001F910F91FF90EF90DF900895AF92BF9225
:101FC000CF92DF92EF92FF920F931F93CF93DF9305
:101FD000EC01162FF42EE22EA02FBB27A7FDB09503
:101FE000A41BB10947FDB395B7FF03C0B195A195F7
:101FF000B109EE2DFF27E7FDF095E11BF10917FD73
:10200000F395F7FF03C0F195E195F109BB24B39473
:10201000EA17FB0714F0B12C06C08E2DE02E082F16
:10202000812F1F2DF82EE11634F48F2DF02E082F5E
:10203000812F1E2DE82ECE2CC11AE02FFF27E7FDA1
:10204000F095EF19F109F7FCF395F7FF03C0F1954F
:10205000E195F109AE2EDC2CC7FE03C0DD24D3943C
:10206000DC0CD594F01614F401E00FC00FEF0DC096
:10207000BB2071F0412F6F2DCE010E94980EDA180F
:10208000D7FE02C0F00EDC0C1F5FE1168CF703C018
:102090004F2D612FF1CFDF91CF911F910F91FF90C5
:1020A000EF90DF90CF90BF90AF9008958F929F9266
:1020B000AF92BF92CF92DF92EF92FF920F931F9356
:1020C000CF93DF93EC01E62ED42E122FCC24C394B1
:1020D000C21AB22EB194BB0CF12C802F8470A82EA2
:1020E000802F8270982E802F8870882E0170F116B4
:1020F0000CF04DC0C7FC04C01150B394B394CB0C8A
:10210000F3948F2D880F8F5FC80EAA2071F0412F96
:102110004D0D6F2D6E0DCE010E94980E4F2D4D0D61
:10212000612F6E0DCE010E94980E992071F04D2DF9
:10213000411B6F2D6E0DCE010E94980E4D2D4F1933
:10214000612F6E0DCE010E94980E882071F04F2DE8
:102150004D0D6E2D611BCE010E94980E412F4D0D2D
:102160006E2D6F19CE010E94980E002309F4BFCF87
:102170004D2D4F196E2D611BCE010E94980E4D2DD5
:10218000411B6E2D6F19CE010E94980EB0CFDF91CA
:10219000CF911F910F91FF90EF90DF90CF90BF9064
:1021A000AF909F908F9008958F929F92AF92BF9221
:1021B000CF92DF92EF92FF920F931F93CF93DF9313
:1021C000EC01B62EA42E122FDD24D394D21AC22EE7
:1021D000C194CC0CFF24F394802F8170882E992415
:1021E00093949E0C02708FEF8F0D8117C4F5D7FC6E
:1021F00004C01150C394C394DC0C8F2D880F8F5FE3
:10220000D80E882099F0212F220F290D4A2D411B2D
:102210006F2D6B0DCE010E946F0F23E02E0D4A2D06
:102220004F19612F6B0DCE010E946F0F002399F0A3
:10223000212F220F290D4A2D411B6B2D6F19CE0125
:102240000E946F0F23E02E0D4A2D4F196B2D611B3D
:10225000CE010E946F0FF394E394E394C4CFDF9117
:10226000CF911F910F91FF90EF90DF90CF90BF9093
:10227000AF909F908F9008959F92AF92BF92CF9210
:10228000DF92EF92FF920F931F93CF93DF93EC01B6
:10229000B62EF42EA22EDE2CD194DD0C9D2C920EA7
:1022A0001E2D160F292D612F0E94920FCC24CA9447
:1022B000C00ECF0C292D4C2D612FCE010E94920F04
:1022C000D00EFE0C2D2D4F2D6B2DCE010E946F0FC9
:1022D000BA0C6FEF6B0D2D2D4F2DCE010E946F0F9D
:1022E00001E02E2D4F2D612FCE010E945610DE2CC5
:1022F000D094DB0C02E02E2D4F2D6D2DCE010E94CF
:102300005610CE1804E02E2D4C2D6D2DCE010E94BE
:10231000561008E02E2D4C2D612FCE010E94561034
:10232000DF91CF911F910F91FF90EF90DF90CF90B1
:10233000BF90AF909F900895AF92BF92CF92DF92DF
:10234000EF92FF920F931F93CF93DF93EC01A62E92
:10235000C42EB22EF02E1E2DE194EE0CD12ED60EF0
:102360002E2D2B0D6D2D0E94B50FFA94FE0CC10E73
:102370006FEF6A0D6B0D611BEF2C01E0212F4C2DCF
:10238000CE010E94D41002E0212F4C2D6D2DCE01E4
:102390000E94D410DF91CF911F910F91FF90EF9089
:1023A000DF90CF90BF90AF9008956F927F928F9201
:1023B0009F92AF92BF92CF92DF92EF92FF920F93D4
:1023C0001F93CF93DF93F901A49031965491FC01B0
:1023D000F0A064350CF00CC1BB24A7FCB094A62F70
:1023E000BB27A7FDB095FD01EA0DFB1D1E161F06BC
:1023F0000CF0FEC040330CF0FBC0C52E042F11279B
:1024000007FD1095E801C50FD11D57FDDA951C1683
:102410001D060CF0EDC0E90122969501295F3F4FA2
:1024200037FF02C0295F3F4F73E0359527957A95B6
:10243000E1F747FF0AC0C52EC40E209FA001219FCF
:10244000500D1124C41BD50B40E00C2D112707FDA6
:102450001095040F111D47FD1A95013311051CF04D
:1024600070E3C72EC41A67FD60E0E535F10514F08E
:10247000E4E5F0E01E2FFC0174857427862F992770
:1024800087FD9095FC01EA1BFB0BDF015F01F7E084
:10249000AF22BB24E0E8F0E002C0F595E795AA94EE
:1024A000E2F70E2FB7FD179653E0B595A7955A950D
:1024B000E1F7AC0FBD1FE42FE77051E001C0550FED
:1024C000EA95EAF7459545954595E4E54E02800D78
:1024D000911D11248B529C4F40E0DD24C7FCD09409
:1024E000BB24B3943327E42FF0E0EC15FD050CF08A
:1024F0007FC0FD01E490F1E0FF1219C0EC01A02EB5
:10250000FD01862E881A9C2E980C911608F067C043
:102510009E2C9A2019F09880952A9882A69429F4E6
:102520003196E4906894AA24A7F82196ECCFF11094
:102530001BC0752E7094EC01A02EFD01862E881A0A
:102540009C2E980C911608F04AC09E2C9A2019F0E7
:10255000988097209882A69429F43196E490689404
:10256000AA24A7F82196ECCFE3E0FE1631F0EC01A7
:10257000A02EFD01862E881A2EC0752E7094962EE0
:10258000EC01A02EFD019116B0F48E2C8A2049F0AA
:102590008880692C672660FE02C0852A01C08720DA
:1025A0008882A69429F43196E4906894AA24A7F826
:1025B00093942196E8CF7B2512C09E2C9A2019F087
:1025C000988095269882A69429F43196E490689490
:1025D000AA24A7F821969C2E980C911670F3550FFB
:1025E00019F48C5A9F4F51E04F5FA20FB31F7BCF5E
:1025F000DF91CF911F910F91FF90EF90DF90CF90DF
:10260000BF90AF909F908F907F906F9008952F9282
:102610003F924F925F926F927F928F929F92AF9272
:10262000BF92CF92DF92EF92FF920F931F93CF93BF
:10263000DF93CDB7DEB72A970FB6F894DEBF0FBE93
:10264000CDBF6C01262E542F01111CC0E1101AC001
:102650002A960FB6F894DEBF0FBECDBFDF91CF91A3
:102660001F910F91FF90EF90DF90CF90BF90AF90B0
:102670009F908F907F906F905F904F903F902F90A2
:102680000C94D511F901849131963490B9016E5FA3
:102690007F4F7A836983A82EB12C9501295F3F4F24
:1026A000B3E035952795BA95E1F73A872987037006
:1026B0002FEF280F522E10E07FEF730D832D90E047
:1026C0009C838B83812F992787FD90958A159B0585
:1026D0000CF071C0812F17FF02C087E0810F682EB8
:1026E000659465946594812F877887FF03C0815036
:1026F000886F8F5FA0E88A2E912C02C095948794F2
:102700008A95E2F7472EF12C772467FC70948F2D81
:10271000992787FD9095EB81FC818E179F070CF020
:1027200047C0A985BA858A9FF0018B9FF00D9A9FBB
:10273000F00D1124E60DF71D89819A81E80FF91F2C
:10274000E491F0E0E821F921EF2B79F1023039F042
:10275000033041F0013049F4452D6F2D08C0652D3F
:10276000442D05C0642D412F02C04F2D612FEE2056
:1027700069F03E2D3370E0FE03C0922F961B692F47
:10278000E1FE05C0A32DA41B4A2F01C030E0620D5D
:10279000450FC6012E833D835F8378870E94980E84
:1027A0003D81E32E78855F812E81F3944A94AFCFEB
:1027B0001F5F5A9487CF2A960FB6F894DEBF0FBEDC
:1027C000CDBFDF91CF911F910F91FF90EF90DF90E0
:1027D000CF90BF90AF909F908F907F906F905F90C1
:1027E0004F903F902F900895DC01FB0184918F5F03
:1027F00014968C9314973196E491EF5F1596EC93B1
:1028000015976E5F7F4F5F967C936E935E970895EA
:10281000EF920F93CF93DF93EC014E876D872F8755
:10282000E98A088B81E0888788A319A28F836DECE1
:1028300071E0CE010E94F4130E944A0D8CB58F7D89
:102840008CBD8CB58C7F81608CBD8DB581608DBD5C
:102850008CB58C608CBD61E08E850E944B1E61E062
:102860008D850E944B1E61E08F850E944B1E8989D9
:1028700018161CF461E00E944B1E888918161CF47F
:1028800061E00E944B1E898918166CF460E00E947A
:10289000841E6AE070E080E090E00E94431D61E0E9
:1028A00089890E94841E8D85992787FD9095FC015A
:1028B000E552FB4FE491F0E0EE0FFF1FE750FB4FB6
:1028C000259134913D8B2C8BFC01E953FB4F849176
:1028D0008B8F8E85992787FD9095FC01E552FB4FE4
:1028E000E491F0E0EE0FFF1FE750FB4F259134918C
:1028F0003B8B2A8BFC01E953FB4F84918A8F88899B
:10290000992787FD9095FC01E552FB4FE491F0E09B
:10291000EE0FFF1FE750FB4F259134913F8B2E8B1D
:10292000FC01E953FB4F84918C8F8F85992787FD9C
:102930009095FC01E552FB4FE491F0E0EE0FFF1F94
:10294000E750FB4F25913491398F288FFC01E953D3
:10295000FB4F84918D8F61E2CE010E94F00E64E105
:10296000CE010E94F00E8B8587FF02C08FE78B8718
:102970006B856068CE010E94F00E60E2CE010E947D
:10298000F00E6CE0CE010E94F00ECE01DF91CF91EF
:102990000F91EF900C941F0F6F927F928F929F92E6
:1029A000AF92BF92CF92DF92EF92FF920F931F935D
:1029B000CF93DF93EC01162FF42EB02EE8A06435F0
:1029C0000CF081C08FE284170CF47DC0EC81F0E044
:1029D00031970E9FC0010F9F900D1124860F911DFE
:1029E00067FD9A95181619060CF06DC08D81809FB1
:1029F000C0011124840F911D47FD9A9518161906E0
:102A00000CF061C0A62E962EC22ED12C8A2D811BD1
:102A1000992787FD90952C8130E0821793070CF061
:102A200051C0215031098217930779F0C29ED0011D
:102A3000C39EB00DD29EB00D1124A80FB91FEE8D0C
:102A4000FF8DEA0FFB1F749001C0712C8F2C6F2C2F
:102A5000282D2F19332727FD30958D8190E02817D9
:102A600039076CF570FE11C081E0B81206C0482D20
:102A70006A2DCE010E94980E1EC00B2D2B2D462DC7
:102A8000692DCE010E94B50F16C089A198A18917A2
:102A900091F088A381E0B81206C0482D6A2DCE01BE
:102AA0000E94980E07C00B2D2B2D462D692DCE01AF
:102AB0000E94B50FE8A276946B0C8394C9CF9B0C4F
:102AC000A394A4CFE8A2DF91CF911F910F91FF9023
:102AD000EF90DF90CF90BF90AF909F908F907F90BE
:102AE0006F9008950F93CF93DF93EC01262F6A30F8
:102AF00039F42D8198858A85299F800D112422C063
:102B00006D3011F108854A8569850E94CC1448858D
:102B10005C812985549F200D112429878F8188236A
:102B200099F0332727FD309584E590E0459F801983
:102B300091091124821793073CF49D818A85499F4E
:102B4000800D11248A87198681E090E0DF91CF9172
:102B50000F9108958F929F92AF92BF92CF92DF9282
:102B6000EF92FF920F931F93CF93DF93EC015C01E1
:102B700086E8A80EB11CD5018C91882309F44DC0BC
:102B80008C3018F41CE0181B01C010E0FE01EA5A5A
:102B9000FF4F81E080836E01BEE4CB0ED11C60E06C
:102BA000C6010E94670F4E01E3E58E0E911CD40111
:102BB0008C9103E0080F9DE2F92E4F2D481B410F29
:102BC00023E0E22E24E560E0C6010E949C1161E052
:102BD000C6010E94670FF401808103E0080F4F2DAA
:102BE000481B410F24E560E0C6010E943C11FE0134
:102BF000E95AFF4F84E080833196D4018C91181BF1
:102C0000115D1083CC57DF4F68817981C6010E9426
:102C1000311FF501808181508083DF91CF911F9119
:102C20000F91FF90EF90DF90CF90BF90AF909F906B
:102C30008F900895DF92EF92FF920F931F93CF939F
:102C4000DF93EC018C8D9D8D892B09F49CC08E0146
:102C5000025B1F4F40E061E0C8010E946B0F85E5F9
:102C6000FE01EE5AFF4F9081891B35968083319685
:102C70001082698D613009F462C028F0888D65305A
:102C800008F074C06FC0CE0185960E94131B81E0CE
:102C9000FE01EA5AFF4F80836DEC71E0C8010E948B
:102CA000F4131D8E1C8EFE01EC5AFF4F108238EA81
:102CB000D32E7E018AE0E80EF11CCE010E94CB16D5
:102CC0008823D9F36CEB73E0C8010E94311F6A8D31
:102CD0007B8D4AE050E0C8010E942D2067EA73E036
:102CE000C8010E94311F6D2D62956F7070E04AE03F
:102CF00050E0C8010E9418206CE973E0C8010E94EE
:102D0000311F64E0C7010E94720E81113CC0DA9449
:102D1000A1F660E0CE010E94840D83B7817F8460BC
:102D200083BF83B7816083BF83B7816083BF88958A
:102D300083B78E7F83BF83B78E7F83BFBECFCF58CD
:102D4000DF4F488159816A817B814F705527662703
:102D50007727483051056105710510F467E009C017
:102D600068E707C0882379F06B5F03C0882359F0B8
:102D70006FE2C801DF91CF911F910F91FF90EF900B
:102D8000DF900C94581FDF91CF911F910F91FF900E
:102D9000EF90DF9008958F929F92AF92BF92EF9243
:102DA000FF920F931F93CF93DF93EC017C0100E818
:102DB000E00EF11CF70180809180A280B3800E9418
:102DC000141D95018401061B170B280B390BB90143
:102DD000A8015E011FE7A10EB11CF501808190E002
:102DE000A0E0B0E08E0105581F4F84179507A60795
:102DF000B70750F4F80180819181A281B381892BBA
:102E00008A2B8B2B09F040C0F80180819181A2812F
:102E1000B381892B8A2B8B2BA9F57E01F5E2EF0E6E
:102E2000F11CC7010E94101BC7010E947D1BC70136
:102E30000E94411CCE010E94AA15CE010E941A16C2
:102E40007E012EE4E20EF11CC7010E941F0FFE015D
:102E5000EC5AFF4F8081811103C0C7010E940E0F01
:102E60000E94201DF8016083718382839383FE0199
:102E7000EB58FF4FC958DF4F28813981621B730B14
:102E80007183608380E036C00E94141DF5012081AB
:102E9000620F711D811D911DF70160837183828313
:102EA0009383FE01EF58FF4F40815181628173810E
:102EB0004F5F5F4F6F4F7F4F4083518362837383B8
:102EC000F80110821182128213820E94201DFE01DD
:102ED000E958FF4F6083718382839383CE010E9400
:102EE000880DCE010A960E943B0ECE0148960E94A4
:102EF000F10D81E0DF91CF911F910F91FF90EF9045
:102F0000BF90AF909F908F9008950F931F93CF9392
:102F1000DF938C01EC01C25BDF4FCE010E940E0FEC
:102F200064E773E0CE010E94311FCE010E941F0FA3
:102F30008CB583608CBD8DB58E7F8DBD84E591E0B1
:102F4000EEEFFFE30995F801EC5AFF4F10826FE4B2
:102F500073E0CE010E94631FCE010E941F0F065F27
:102F60001F4FC8010E943B0E64E0C8010E94720E10
:102F7000811107C062E370E080E090E00E94431D91
:102F8000F0CFDF91CF911F910F9108952F923F9233
:102F90004F925F926F927F928F929F92AF92BF9269
:102FA000CF92DF92EF92FF920F931F93CF93DF9315
:102FB000CDB7DEB729970FB6F894DEBF0FBECDBFF1
:102FC000998788871B012A013C0180E7680E711CE4
:102FD000F3018081882309F402C181E0E885F98545
:102FE000EA5AFF4F8083E885F985EB5AFF4F10823C
:102FF000E885F985EC5AFF4F1082E885F985108E37
:103000008F01025B1F4F61E0C8010E94670F888536
:1030100099858D5A9F4F9C838B83C884D98497E56B
:10302000C90ED11CE884F984E8E5EE0EF11C888510
:1030300099858E5A9F4F9A838983E885F985EF5841
:10304000FF4FFE83ED8388849984FAE08F0E911CF4
:10305000A884B98485E2A80EB11C888599850E9450
:10306000CB168823D1F3F1018491882321F0EB81E1
:10307000FC81508101C050E020EE33E040E060E090
:10308000C8015F830E94D5115F814114510439F05A
:103090004CE0450F920160E0C8010E94D511F60195
:1030A00010828CE0F7018083B101C8010E94311FBA
:1030B000E981FA819081892F880F890F81958D5A36
:1030C000F6018083EB81FC819081892F880F890F25
:1030D0008195835DF7018083ED81FE81808184FF8E
:1030E00003C06AED73E002C066ED73E0C8010E94A0
:1030F000631FE981FA819081892F880F890F81955B
:103100008D5AF6018083F70180818F5F8083E88587
:10311000F98582A5882319F062ED73E002C06EEC98
:1031200073E0C8010E94631FE981FA819081892FB1
:10313000880F890F81958D5AF6018083F701808170
:103140008F5F80836AEC73E0C8010E94631F65E0B3
:10315000C4010E94720E882351F0E885F98562A5AA
:103160006F5FC5010E94BD1CC5010E94A71C64E0E1
:10317000C4010E94720E811113C0F3012081822FBD
:1031800090E0A0E0B0E0ED81FE814081518162815C
:103190007381481759076A077B07A8F02F3F99F0FA
:1031A0008FEFF3018083088519850B5D1F4F60E069
:1031B000C8010E94BA1AC8010E94911C81E0E885EA
:1031C000F985808F0CC066E0C4010E94720E8823CE
:1031D00009F443CF888599850E94851734CF2996B5
:1031E0000FB6F894DEBF0FBECDBFDF91CF911F9118
:1031F0000F91FF90EF90DF90CF90BF90AF909F9096
:103200008F907F906F905F904F903F902F90089598
:1032100040E050E00C94C6176EED73E00C94081972
:10322000AB016FED73E00C94C617E0E8F7E725916A
:10323000349181E02130304C09F080E00895CF9343
:10324000DF93EC010E9415199E01275A3F4FDE01C2
:10325000A059BF4F882309F43CC0E6E9F7E7849101
:10326000F9018083E7E9F7E7E491EC83E8E9F7E720
:10327000E491ED83E9E9F7E7859194919F838E834B
:10328000EBE9F7E78591949199878887EDE9F7E76E
:10329000E491EBA7EEE9F7E7E491EAA7EFE9F7E7B6
:1032A000E491EC93E0EAF7E7859194919D8F8C8F00
:1032B000E2EAF7E7859194919F8F8E8FE4EAF7E732
:1032C0008591949199A388A3E6EAF7E78591949173
:1032D00020C08CE3F90180831C822FEF2D8380E2D4
:1032E00093E09F838E8384ED93E09987888781E0C4
:1032F0008BA78AA72C938CEA9DE09D8F8C8F8EEDF7
:103300009DE09F8F8E8F84E79EE099A388A38CE336
:103310009FE09BA38AA3DF91CF910895CF92DF9284
:10332000EF920F93CF93DF93EC01FC01E158FF4F35
:1033300082E38083349741E050E060E070E04083B6
:103340005183628373833B978FEF8083CE010E940A
:103350001F19CE010E94800D6FEFCE010E94840DD7
:103360006E018AE0C80ED11CC6010E942B0EC60158
:103370000E943B0ECE0148960E94E70D3EE0E32EF0
:103380000FE020E14BE06DE0CE01825B9F4F0E9499
:103390000814A596CE010E94261A65E0C6010E9477
:1033A000720E882351F060E0CE01DF91CF910F9132
:1033B000EF90DF90CF900C94BD1C40E060E574E08E
:1033C000CE01DF91CF910F91EF90DF90CF900C94D1
:1033D000C51ACF93DF9350E0FA01EE0FFF1FE80FFD
:1033E000F91F37852089E32FF22FE60FF11DE60F35
:1033F000F11D25913491FA01EE0FFF1FE80FF91F1F
:1034000030A3278FF90165917491FC01D481D69F77
:10341000C02D1124E40FF51FC1A3F901A591B491AA
:103420006B2F70E0EC2FF0E0DC01A40FB51F6E17DE
:103430007F0720F4F90125913491C32FCD9FC02D32
:1034400011249296CC93DF91CF91089521E0FC0155
:10345000248324E020A727EA34E0308B278740E04C
:1034600060E00E94E91961E070E083E00E94C31D02
:10347000E1EBF0E08081887F81608083F894109296
:103480008000E1E8F0E01082109285001092840044
:1034900088E191E090938900809388008081886022
:1034A0008083808181608083EFE6F0E080818260AC
:1034B0008083789408950F93FC01862F642F011167
:1034C00029C08230D1F048F4882391F0813011F581
:1034D00040E0CF010F910C94E9198330A9F08430BA
:1034E000C9F48481489F602D1124658F268F12C0F6
:1034F0004B3008F06AE0668B0DC08481489F602DD8
:103500001124618F228F06C08481489F602D112471
:10351000638F248F0F910895FC0121110EC0648BDD
:103520008481489F402D1124458B15A214A213A21B
:1035300081E0878B8093D905108E08958091D905FD
:10354000882319F08091D60501C080E08093B400F3
:103550000895FC0161110DC0178A158A14A213A2E7
:10356000108E1092D6051092D7051092D9050C94A2
:103570009E1A0895CF93DF93EC01611103C00E945E
:10358000A91A1982DF91CF9108950F931F93CF93BA
:10359000DF93EC018B0141110EC060E00E94BA1A6A
:1035A0001E870D871B8A1A8A81E0898389E08E8BAA
:1035B000198E1B8E1D8EDF91CF911F910F91089553
:1035C000CF93DF93EC01611128C08881882329F112
:1035D0008981811122C089852F819885E22FF92F59
:1035E000E80FF11DE80FF11D859194918F3F2FEFAA
:1035F000920711F4188211C09C879927880F991F90
:10360000EA85FB85E80FF91F6591749140E0CE01D2
:103610000E94C51A89858F5F8987DF91CF910895B0
:1036200060E00C94E01A60E00C94BA1A0F93CF9308
:10363000DF93EC0161115DC08981882309F459C0D1
:103640008D89811156C02D853E858A899B89880F79
:10365000991F820F931FFC01859194910097D1F4DB
:103660008989882321F01B8A1A8AF90111C01982DD
:10367000888160E0882331F0CE010E94E01A8A89B7
:103680009B8925C0CE01DF91CF910F910C94A91A8F
:1036900085919491BC01769567957695679580FFA5
:1036A0001DC0AC01A6E056954795AA95E1F7292FD4
:1036B00026952695269520514F716F7000E0CE011A
:1036C0000E945B1A8A899B8901969B8B8A8B880F43
:1036D000991FED85FE85E80FF91FDACF492F6F732B
:1036E00020E0CE010E948C1A8A899B8901969B8BCF
:1036F0008A8BDF91CF910F91089560E00C94161B97
:10370000CF93DF93EC016111B9C08F89882309F44D
:10371000B5C08D89811105C0CE01DF91CF910C9488
:10372000A91A81508D8B8DA1811138C08BA19CA1CC
:1037300001969C01220F331FEF8DF8A1E20FF31FBA
:1037400025913491422F47704EA3A90163E056950D
:1037500047956A95E1F7BA0176956795232F2695E7
:1037600026952FA36F732C81629F602D11246DA36A
:1037700041704093D5059CA38BA329A130E082170B
:10378000930760F08AA1882329F0281B31093CA304
:103790002BA304C060E0CE010E94A91A8DA1815024
:1037A0008DA3288D2F5F288F4C893FA1340F8C85E6
:1037B000380F3A836B8D662361F070E0822F992772
:1037C00087FD90950E94C8218C8D869F300D112415
:1037D0003A838A8190E0CB966BE370E00E94C82127
:1037E0008A833E893B83698D662371F0772767FD65
:1037F0007095822F992787FD90950E94C8218A8D08
:10380000869F300D11243B836D8D662391F0822FAE
:10381000992787FD909570E00E94C821CB0162E056
:1038200070E00E94C8212E8D9B81289F900D11244D
:103830009B838B814F3339F08A300CF089E087FD10
:1038400080E08B8301C01B82F894EA81F0E0E25AA9
:10385000FB4FE491E093D80598A58D81989F802D2A
:1038600011249B81899F802D11249EA1899F802DE9
:1038700011248093D7058093D6057894DF91CF915A
:10388000089560E00C94801B6091D705662321F1B8
:103890008091DA058F5F8093DA059091D8058917BA
:1038A000D8F08091D90591E089278093D9051092AD
:1038B000DA058091D505882369F090910A0183E4A7
:1038C000989F802D1124895B80930A010E94A82172
:1038D0009093D6050C949E1A08951F920F920FB6DE
:1038E0000F9211242F933F934F935F936F937F9386
:1038F0008F939F93AF93BF93EF93FF930E94441CCA
:10390000FF91EF91BF91AF919F918F917F916F91B7
:103910005F914F913F912F910F900FBE0F901F908D
:103920001895CF93DF93EC0160E00E94BA1A8FE9FB
:1039300094E09E878D871B8A1A8A81E0898389E0BB
:103940008E8B198E1B8E1D8EDF91CF910895CF9394
:10395000DF93EC0160E00E94BA1A89E994E09E8747
:103960008D871B8A1A8A81E0898389E08E8B198E64
:103970001B8E1D8EDF91CF910895FC01862F992714
:1039800087FD9095668170E06F5F7F4F0E94C82130
:10399000858308951F920F920FB60F9211242F93D3
:1039A0003F938F939F93AF93BF938091DC0590914A
:1039B000DD05A091DE05B091DF053091DB0523E048
:1039C000230F2D3720F40196A11DB11D05C026E857
:1039D000230F0296A11DB11D2093DB058093DC050A
:1039E0009093DD05A093DE05B093DF058091E0059F
:1039F0009091E105A091E205B091E3050196A11D2A
:103A0000B11D8093E0059093E105A093E205B0938A
:103A1000E305BF91AF919F918F913F912F910F90AF
:103A20000FBE0F901F9018952FB7F8946091DC058A
:103A30007091DD058091DE059091DF052FBF08951F
:103A40003FB7F8948091E0059091E105A091E205DF
:103A5000B091E30526B5A89B05C02F3F19F001964C
:103A6000A11DB11D3FBF6627782F892F9A2F620FA6
:103A7000711D811D911D42E0660F771F881F991FE0
:103A80004A95D1F70895CF92DF92EF92FF92CF93AC
:103A9000DF936B017C010E94201DEB01C114D10456
:103AA000E104F10489F00E947A200E94201D6C1B21
:103AB0007D0B683E734090F381E0C81AD108E1089D
:103AC000F108C851DC4FEACFDF91CF91FF90EF9022
:103AD000DF90CF900895789484B5826084BD84B5DA
:103AE000816084BD85B5826085BD85B5816085BDF9
:103AF000EEE6F0E0808181608083E1E8F0E0108212
:103B0000808182608083808181608083E0E8F0E052
:103B1000808181608083E1EBF0E08081846080833C
:103B2000E0EBF0E0808181608083EAE7F0E0808173
:103B300084608083808182608083808181608083D3
:103B40008081806880831092C10008958E3008F0D3
:103B50008E50877020910B0190E4299F90011124D1
:103B6000822B80937C0080917A00806480937A001D
:103B700080917A0086FDFCCF8091780020917900B9
:103B800090E0922B08951F93CF93DF93182FEB01B2
:103B900061E00E944B1E209711F460E004C0CF3F0B
:103BA000D10539F461E0812FDF91CF911F910C9401
:103BB000841EE12FF0E0ED54FB4FE491E330F9F087
:103BC00048F4E130B9F0E230A1F584B5806284BDFB
:103BD000C8BD34C0E730E9F0E83019F1E43049F508
:103BE00080918000806280938000D0938B00C0938E
:103BF0008A0024C084B5806884BDC7BD1FC0809181
:103C00008000806880938000D0938900C0938800F2
:103C100015C08091B00080688093B000C093B3005D
:103C20000DC08091B00080628093B000C093B4005A
:103C300005C0C038D1050CF0B5CFAFCFDF91CF9123
:103C40001F910895833081F028F4813099F08230FB
:103C5000A1F008958730A9F08830B9F08430D1F40C
:103C6000809180008F7D03C0809180008F7780934A
:103C70008000089584B58F7702C084B58F7D84BDA0
:103C800008958091B0008F7703C08091B0008F7D40
:103C90008093B0000895CF93DF9390E0FC01E95347
:103CA000FB4F2491FC01E552FB4F8491882349F19D
:103CB00090E0880F991FFC01ED5FFA4FA591B49138
:103CC00087509B4FFC01C591D4919FB7611108C0EB
:103CD000F8948C91209582238C93888182230AC04A
:103CE000623051F4F8948C91322F309583238C9369
:103CF0008881822B888304C0F8948C91822B8C93CA
:103D00009FBFDF91CF9108950F931F93CF93DF93C0
:103D10001F92CDB7DEB7282F30E0F901ED54FB4FED
:103D20008491F901E953FB4F1491F901E552FB4FDE
:103D300004910023C9F0882321F069830E94221E88
:103D40006981E02FF0E0EE0FFF1FE750FB4FA591D8
:103D5000B4919FB7F8948C91611103C010958123A1
:103D600001C0812B8C939FBF0F90DF91CF911F914A
:103D70000F910895CF93DF93282F30E0F901ED5490
:103D8000FB4F8491F901E953FB4FD491F901E552BE
:103D9000FB4FC491CC2391F081110E94221EEC2F85
:103DA000F0E0EE0FFF1FE151FB4FA591B4912C9174
:103DB0002D2381E090E021F480E002C080E090E0DB
:103DC000DF91CF91089508950E946B1D0E94E31E1C
:103DD0000E94D102C0E0D0E00E94000D2097E1F3E4
:103DE0000E940000F9CFCF92DF92EF92FF920F93E3
:103DF0001F93CF93DF936C017A01EB01E60EF71E60
:103E000000E010E0CE15DF0561F06991D601ED917B
:103E1000FC910190F081E02DC6010995080F191F52
:103E2000F1CFC801DF91CF911F910F91FF90EF90DB
:103E3000DF90CF9008956115710581F0DB010D9041
:103E40000020E9F7AD0141505109461B570BDC0139
:103E5000ED91FC910280F381E02D099480E090E0E7
:103E60000895EF92FF920F931F93CF93DF938C01EE
:103E7000FB01C0E0D0E064917F018FEFE81AF80AFF
:103E8000662361F0D801ED91FC910190F081E02D65
:103E9000C8010995C80FD91FF701EDCFCE01DF91F9
:103EA000CF911F910F91FF90EF9008950C941B1FDD
:103EB000DC01ED91FC910190F081E02D09946BE51E
:103EC00071E00C941B1F0F931F93CF93DF93EC01B2
:103ED0000E94311F8C01CE010E945F1F800F911F35
:103EE000DF91CF911F910F9108958F929F92AF9282
:103EF000BF92CF92DF92EF92FF920F931F93CF93D7
:103F0000DF93CDB7DEB7A1970FB6F894DEBF0FBE33
:103F1000CDBF7C01C42EE52FCB01D22E19A221E00A
:103F20002D1510F02AE0D22E8E010F5D1F4F8D2C23
:103F3000912CA12CB12C6C2D7E2FA50194010E94F7
:103F4000DC218C2DD29E80191124015011098A3058
:103F500014F4805D01C0895CF8018083211531056E
:103F60004105510521F0C22EE32FCA01E4CFB8016B
:103F7000C7010E941B1FA1960FB6F894DEBF0FBEAB
:103F8000CDBFDF91CF911F910F91FF90EF90DF9008
:103F9000CF90BF90AF909F908F900895CF92DF9277
:103FA000EF92FF920F931F93CF93DF93EC016A017F
:103FB0007B012115310579F4E881F9810190F081C7
:103FC000E02D642FDF91CF911F910F91FF90EF9023
:103FD000DF90CF9009942A303105E9F477FF1AC0B9
:103FE0006DE20E94581F8C0144275527BA014C19D5
:103FF0005D096E097F092AE0CE010E94751F800FBE
:10400000911FDF91CF911F910F91FF90EF90DF9063
:10401000CF9008952AE0B701A601CE01DF91CF919C
:104020001F910F91FF90EF90DF90CF900C94751F30
:104030009A01AB01662757FD6095762F0C94CE1F31
:104040002115310541F4DC01ED91FC910190F081E5
:10405000E02D642F09940C94751F9A01AB0160E068
:1040600070E00C9420204F925F926F927F92AF92FB
:10407000BF92CF92DF92EF92FF920F931F93CF9355
:10408000DF93CDB7DEB729013A01621B730B840BB6
:10409000950B29893A894B895C892A193B094C0976
:1040A0005D09298B3A8B4B8B5C8B9B01AC01698939
:1040B0007A898B899C890E949821E418F508060961
:1040C0001709A80197010E94FE212A0D3B1D4C1DD6
:1040D0005D1DCA01B901DF91CF911F910F91FF9032
:1040E000EF90DF90CF90BF90AF907F906F905F90F8
:1040F0004F900895089598D088F09F5790F0B92F69
:104100009927B751A0F0D1F0660F771F881F991F2C
:104110001AF0BA95C9F712C0B13081F09FD0B1E062
:1041200008959CC0672F782F8827B85F39F0B93F72
:10413000CCF3869577956795B395D9F73EF490952E
:104140008095709561957F4F8F4F9F4F0895E894AC
:1041500009C097FB3EF490958095709561957F4FCF
:104160008F4F9F4F9923A9F0F92F96E9BB2793957D
:10417000F695879577956795B795F111F8CFFAF48D
:10418000BB0F11F460FF1BC06F5F7F4F8F4F9F4FBE
:1041900016C0882311F096E911C0772321F09EE81C
:1041A000872F762F05C0662371F096E8862F70E082
:1041B00060E02AF09A95660F771F881FDAF7880F5C
:1041C0009695879597F9089597F99F6780E870E02D
:1041D00060E008959FEF80EC089500240A9416167D
:1041E000170618060906089500240A9412161306E5
:1041F000140605060895092E0394000C11F4882373
:1042000052F0BB0F40F4BF2B11F460FF04C06F5F8E
:104210007F4F8F4F9F4F089557FD9058440F551F64
:1042200059F05F3F71F04795880F97FB991F61F038
:104230009F3F79F087950895121613061406551FAF
:10424000F2CF4695F1DF08C0161617061806991F1B
:10425000F1CF86957105610508940895E894BB2710
:1042600066277727CB0197F908950BD0C4CFB5DF28
:1042700028F0BADF18F0952309F0A6CFABCF1124B0
:10428000EECFCADFA0F3959FD1F3950F50E0551FF5
:10429000629FF001729FBB27F00DB11D639FAA279B
:1042A000F00DB11DAA1F649F6627B00DA11D661FEA
:1042B000829F2227B00DA11D621F739FB00DA11D0B
:1042C000621F839FA00D611D221F749F3327A00DC5
:1042D000611D231F849F600D211D822F762F6A2F61
:1042E00011249F5750408AF0E1F088234AF0EE0FE6
:1042F000FF1FBB1F661F771F881F91505040A9F7F3
:104300009E3F510570F060CFAACF5F3FECF3983E1F
:10431000DCF3869577956795B795F795E7959F5F59
:10432000C1F7FE2B880F911D9695879597F90895F3
:10433000DB018F939F930E941D22BF91AF91A29F9B
:10434000800D911DA39F900DB29F900D1124089593
:10435000991B79E004C0991F961708F0961B881FD7
:104360007A95C9F780950895AA1BBB1B51E107C038
:10437000AA1FBB1FA617B70710F0A61BB70B881FF5
:10438000991F5A95A9F780959095BC01CD01089584
:1043900097FB072E16F4009407D077FD09D00E94F2
:1043A000B42107FC05D03EF4909581959F4F089568
:1043B000709561957F4F0895A1E21A2EAA1BBB1B31
:1043C000FD010DC0AA1FBB1FEE1FFF1FA217B307E1
:1043D000E407F50720F0A21BB30BE40BF50B661FF7
:1043E000771F881F991F1A9469F7609570958095BB
:1043F00090959B01AC01BD01CF010895052E97FB5F
:104400001EF400940E94152257FD07D00E94DC2163
:1044100007FC03D04EF40C9415225095409530952E
:1044200021953F4F4F4F5F4F089590958095709520
:1044300061957F4F8F4F9F4F08950E942E22A59F19
:10444000900DB49F900DA49F800D911D112408958F
:10445000EE0FFF1F0590F491E02D0994A29FB0018B
:10446000B39FC001A39F700D811D1124911DB29FA8
:0E447000700D811D1124911D0895F894FFCF49
:10447E000000E40580000100000001014C65766536
:10448E006C2031004C6576656C20320001113500D0
:10449E00070002030111350007000A03011A290162
:1044AE000103071400002A01010207140036000060
:1044BE000000070100004101010107050000000096
:1044CE007215F31E4C4F41444552000D0A006E61A9
:0C44DE006E00696E66006F7666002E00AE
:00000001FF
