:100000000C9488020C94B0020C94B0020C94B002D0
:100010000C94B0020C94B0020C94B0020C94B00298
:100020000C94B0020C94B0020C94B0020C943D05F8
:100030000C94B0020C94B0020C94B0020C94B00278
:100040000C94AE040C94B0020C94B0020C94B00268
:100050000C94B0020C94B0020C94B0020C94B00258
:100060000C94B0020C94B0020101FF030101F703EC
:100070006C00680000000000240027002A00000037
:100080000000250028002B000500893008023802F6
:1000900049786814000000180C00000000000000FF
:1000A00000000000000000240000380000540000A0
:1000B0007C0000380000380000280000281804FFE9
:1000C000FFFFFFFFFFAAAAAA5555551804FFFFFF1F
:1000D00028A28A451451FFFFFF1804FFFFFF249256
:1000E00049492492FFFFFF1804FFFFFFFFFFFF496C
:1000F0002492B6DB6D1804FFFFFFBBBBBBFFFFFF05
:10010000FFFFFF0808FFBBFFFFFFBBFFFF00000072
:100110000008080F0B0F0FFFBBFFFF0000000008D7
:1001200008F0B0F0F0FFBBFFFF0000000008047E05
:10013000CFBFFF00000000000000000404F0B0F09A
:10014000F0000000000000000010071C00630080A9
:10015000BC8042880140013FFE000008087088A86A
:10016000707070505008087088A870707050100837
:10017000087088A8707070101008087088A87070D7
:1001800070202008087088A87070704040080870BF
:1001900088A8707070504006015406012808053880
:1001A0004454FE7C0B0514003E007700BE80A28004
:1001B0000B050A001F007B80BF4001400B050A00B1
:1001C0001F007BC0BFA0A0A00B0514003E007780DD
:1001D000BF40A00005084870A8F87070505005088E
:1001E0004870A8F87070504005084870A8F8707002
:1001F000501005080000004870A8F87000F6E8DB11
:10020000CFC3B8AEA49B928A827B746E68625C573F
:10021000524E4945413E3A3734312E2C2927252369
:10022000211F1D1C1A1917161514131211100F0E69
:100230000D0C0B0A090807060A0A153A49676E6F82
:100240007265006D560A0A504C454153452054557D
:10025000524E204F464620004C4F572042415454A6
:1002600045525921200003053F213F1208120A1070
:100270000A0E1C0E0C1E0C141A14161F161E131E2A
:100280001E1B1E1E1F1E3F213F3A2F3A173D173FD0
:10029000213F181F02040A041F0E04040E1F0A1F28
:1002A0000A0E0E1F04110E2E252E2F2A2E26292966
:1002B000021F02081F08150E04040E150E15151B4B
:1002C000151B040604040C040000000017000300C2
:1002D000031F0A1F16371A1904130A153A000300E0
:1002E000000E11110E000A040A040E04003000046E
:1002F00004040010001804031F111F121F101D1505
:100300001711151F07041F17151D1F151D01011FAC
:100310001F151F17151F000A00003200040A110ADA
:100320000A0A110A040115020E11171E051E1F15D7
:100330000A0E110A1F110E1F15111F05010E111DA6
:100340001F041F111F1108100F1F041B1F10101F67
:10035000061F1E040F0E110E1F09060E112E1F057B
:100360001A121509011F011F101F0F180F1F0C1F54
:100370001B041B031C03191513001F110304181180
:100380001F000201022020200001020C121E1F1279
:100390000C0C12120C121F0C1A14041E05242A1E17
:1003A0001F021C141D1020201D1F0814111F101ED9
:1003B000041E1E021C0C120C3E0A040C123E1E04EB
:1003C0000214160A020F120E101E0E100E1E081E28
:1003D000120C1226281E322A26041E21001F00217C
:1003E0001E040102013F213F0000000023002600FF
:1003F00029000404040404040404020202020202A8
:1004000003030303030301020408102040800102D8
:100410000408102001020408102000000008000257
:100420000100000304070000000000000000450078
:100430006801000005003801680100000A4E6F20C5
:1004400053442063617264206F720A6E6F204C4FB8
:10045000414445522E4845580A0A153A4578697470
:10046000001D20466C617368696E670A20206C6FFE
:10047000616465722E2E2E0A0A444F4E2754205472
:1004800055524E204F46462100175344001613780C
:1004900000161314001510200015201000540A0334
:1004A000E181867F3E186D830F0F0E0183866033D6
:1004B000186DC3198F1803C38E6033186DE330CFE6
:1004C0001803C39E603630CDE360CF3006C79E7EF2
:1004D0003E30CDB360CF300CC6F6603330D9B66055
:1004E000CF33CFCCF66061B0DB1E60CF30D86CE686
:1004F000C061B0DB1E618F19986CC6C063B19B0EE2
:10050000330F0FB078C6FF7E1F1B061E0F00591E4B
:1005100011241FBECFEFD8E0DEBFCDBF11E0A0E0B9
:10052000B1E0E4E7F0E402C005900D92AE32B1070D
:10053000D9F725E0AEE2B1E001C01D92A93AB207B9
:10054000E1F712E0C8E8D2E004C02197FE010E9462
:10055000A81EC738D107C9F70E940C170C94382081
:100560000C940000CF92DF92EF92FF920F931F93B3
:10057000CF93DF936C017A018B01C0E0D0E0CE1500
:10058000DF0589F0D8016D918D01D601ED91FC91C7
:100590000190F081E02DC6010995892B11F47E01AF
:1005A00002C02196ECCFC701DF91CF911F910F912F
:1005B000FF90EF90DF90CF9008950E94D81FDC014C
:1005C000ED91FC910190F081E02D09946115710588
:1005D00079F0FB0101900020E9F73197AF01461B4C
:1005E000570BDC01ED91FC910280F381E02D099421
:1005F00080E090E008954F925F926F927F92EF9229
:10060000FF920F931F93CF93DF93CDB7DEB7A197E0
:100610000FB6F894DEBF0FBECDBF7C01FA01CB014F
:1006200019A2223008F42AE08E010F5D1F4F422EDE
:10063000512C612C712CBF01A30192010E94072053
:10064000F901CA01015011096A3014F4605D01C05A
:10065000695CD8016C93232B242B252B61F7B801FF
:10066000C7010E94E602A1960FB6F894DEBF0FBE46
:10067000CDBFDF91CF911F910F91FF90EF907F90B1
:100680006F905F904F900895833081F028F481300F
:1006900099F08230A1F008958730A9F08830B9F040
:1006A0008430D1F4809180008F7D03C080918000E0
:1006B0008F7780938000089584B58F7702C084B5CA
:1006C0008F7D84BD08958091B0008F7703C08091A5
:1006D000B0008F7D8093B00008951F93CF93DF9378
:1006E000282F30E0F901E65EFB4F8491F901EA5FC3
:1006F000FB4FD491F901EE50FC4FC491CC23C9F0CB
:10070000162F81110E944403EC2FF0E0EE0FFF1F23
:10071000E258FF4FA591B4918FB7F894111105C01D
:100720009C91ED2FE095E92302C0EC91ED2BEC9329
:100730008FBFDF91CF911F910895CF93DF9390E00A
:10074000FC01EA5FFB4F2491FC01EE50FC4F8491C9
:10075000882361F190E0880F991FFC01EC58FF4F4E
:10076000C591D491FC01E258FF4FA591B49161115C
:1007700009C09FB7F8948881209582238883EC91E3
:100780002E230BC0623061F49FB7F8943881822F1A
:10079000809583238883EC912E2B2C939FBF06C0DA
:1007A0008FB7F894E8812E2B28838FBFDF91CF91EC
:1007B00008951F93CF93DF93182FEB0161E00E9400
:1007C0009D03209711F460E004C0CF3FD10539F4B8
:1007D00061E0812FDF91CF911F910C946D03E12F88
:1007E000F0E0E65EFB4FE491E330F9F048F4E130ED
:1007F000B9F0E230A1F584B5806284BDC8BD34C0D3
:10080000E730E9F0E83019F1E43049F580918000F3
:10081000806280938000D0938B00C0938A0024C0B4
:1008200084B5806884BDC7BD1FC08091800080688A
:1008300080938000D0938900C093880015C0809178
:10084000B00080688093B000C093B3000DC0809169
:10085000B00080628093B000C093B40005C0C0387F
:10086000D1050CF0B5CFAFCFDF91CF911F91089597
:100870008E3008F08E508770806480937C00809169
:100880007A00806480937A0080917A0086FDFCCFA4
:10089000809178002091790090E0922B08953FB7E5
:1008A000F8948091150390911603A0911703B091CD
:1008B000180326B5A89B05C02F3F19F00196A11D6E
:1008C000B11D3FBFBA2FA92F982F8827820F911DE6
:1008D000A11DB11DBC01CD0142E0660F771F881F2D
:1008E000991F4A95D1F708958F929F92AF92BF9228
:1008F000CF92DF92EF92FF926B017C010E944F0436
:100900004B015C01C114D104E104F104F1F00E9437
:100910004F04DC01CB0188199909AA09BB09883E5B
:100920009340A105B10570F321E0C21AD108E10896
:10093000F10888EE880E83E0981EA11CB11CC1143A
:10094000D104E104F10419F7DDCFFF90EF90DF90BF
:10095000CF90BF90AF909F908F9008951F920F926D
:100960000FB60F9211242F933F938F939F93AF93C2
:10097000BF9380911B0390911C03A0911D03B09124
:100980001E033091140323E0230F2D3720F401962A
:10099000A11DB11D05C026E8230F0296A11DB11DA2
:1009A0002093140380931B0390931C03A0931D03B7
:1009B000B0931E038091150390911603A091170325
:1009C000B09118030196A11DB11D8093150390935A
:1009D0001603A0931703B0931803BF91AF919F9193
:1009E0008F913F912F910F900FBE0F901F901895F0
:1009F00050E0DA01AA0FBB1FA80FB91F1F963C9148
:100A00001F9750962C915097E32FF22FE60FF11D70
:100A1000E60FF11D6591749190967C936E935F97AC
:100A2000FB0125913491FC013481329F202D11244A
:100A3000DC01A40FB51F91962C939197FB01859132
:100A40009491E92FF0E0822F90E0E817F90720F465
:100A5000FB0185919491292F239F202D112492969B
:100A60002C93089580911F05882319F0809121050A
:100A700001C080E08093B40008951F920F920FB6DA
:100A80000F9211242F933F934F935F936F937F9314
:100A90008F939F93AF93BF93EF93FF936091200544
:100AA000662321F1809113038F5F8093130390914C
:100AB00019038917D8F090911F0581E08927809349
:100AC0001F051092130380911A03882369F0809107
:100AD000000193E4899F802D1124895B809300019C
:100AE0000E94741E909321050E943205FF91EF91A0
:100AF000BF91AF919F918F917F916F915F914F9136
:100B00003F912F910F900FBE0F901F9018954F920D
:100B10005F926F927F928F929F92AF92BF92CF928D
:100B2000DF92EF92FF920F931F93CF93DF93F90120
:100B3000C49031965491EC0108A164350CF018C1B1
:100B40000C2C000CDD08A62F062E000CBB0B7D0123
:100B5000EC0CFD1C1E141F040CF00AC140330CF0F9
:100B600007C1A52E842E042E000C9908F401E50F70
:100B7000F11D57FDFA951E161F060CF0F9C02E5FE9
:100B80003F4FE6012796D7FD279673E0D595C79589
:100B90007A95E1F747FF0AC0A52EA40EC89DA001D3
:100BA000C99D500D1124241B350B40E0EA2D0A2C61
:100BB000000CFF0BE40FF11D47FDFA95F1971CF0B7
:100BC00050E3A52EA41A67FD60E0F701E535F105B5
:100BD00014F0E4E5F0E07E2FFC01D484D426862FC7
:100BE000062E000C990BFC01EA1BFB0BDF017F01B9
:100BF000F7E0EF22FF24E0E8F0E002C0F595E7958A
:100C0000EA94E2F71E2FB7FD179653E0B595A79526
:100C10005A95E1F72A0F3B1FE42FE77051E001C01E
:100C2000550FEA95EAF7459545954595B4E54B028C
:100C3000800D911D1124815E9C4FC12C0A2C000C4B
:100C4000BB08992493942E015524EC2DF0E0EA156D
:100C5000FB050CF08DC0F90144910130E1F47C01F9
:100C6000A12F862E881AB82DBE0DB71708F077C0B1
:100C7000B42FBA2321F0E701B881B52BB883B0E0D7
:100C8000B595A795109719F431964491A0E8DFEF38
:100C9000ED1AFD0AE8CF01111FC0752E70947C017A
:100CA000A12FF901862E881AB82DBE0DB71708F0AE
:100CB00056C0B42FBA2321F0E701B881B721B88319
:100CC000B0E0B595A795109719F431964491A0E836
:100CD000DFEFED1AFD0AE8CF033031F07C01A12FE0
:100CE000F901862E881A37C0752E7094862E7C01E5
:100CF000A12FF9018716D8F4B42FBA2359F0E701D0
:100D0000B881682C6D2460FE02C0B52B02C0B721EB
:100D1000E701B883B0E0B595A795109719F431961F
:100D20004491A0E88394DFEFED1AFD0AE3CFD924C4
:100D300016C0B42FBA2321F0E701B881B527B883D4
:100D4000B0E0B595A795109719F431964491A0E8B5
:100D5000DFEFED1AFD0AB82DBE0DB71750F3550F92
:100D600019F48C5A9F4F51E0C394240D351D6DCF5B
:100D7000DF91CF911F910F91FF90EF90DF90CF9077
:100D8000BF90AF909F908F907F906F905F904F90AB
:100D90000895FC01643508F053C0403308F050C09A
:100DA00090A1742F759575957595262F062E000CBC
:100DB000330B542F57709230A1F4F901E15EFC4FD0
:100DC00084E57802E00DF11D1124808190E0052E6C
:100DD00002C0959587950A94E2F78095982F9170B7
:100DE0000AC0933041F48485817046274095417054
:100DF000841303C014C0911112C084E57802200D41
:100E0000311D1124F901E15EFC4F81E090E001C049
:100E1000880F5A95EAF780959081892310C084E560
:100E20007802200D311D1124F901E15EFC4F81E0B3
:100E300090E001C0880F5A95EAF79081892B808352
:100E40000895DF92EF92FF920F931F93CF93DF935A
:100E50001F92CDB7DEB78C01D62EF42EE12CE21610
:100E600054F46E2D6D0D4F2DC80129830E94C906C3
:100E7000E3942981F4CF0F90DF91CF911F910F91CF
:100E8000FF90EF90DF900895DF92EF92FF920F9323
:100E90001F93CF93DF937C01D62FD22EC42F002E29
:100EA000000C110B040F111D47FD1A954C2F0C2E31
:100EB000000C550B4017510744F42D2D4C2F6D2F6E
:100EC000C7010E942107CF5FF1CFDF91CF911F9122
:100ED0000F91FF90EF90DF9008956F927F928F9225
:100EE0009F92AF92BF92CF92DF92EF92FF920F93B9
:100EF0001F93CF93DF93EC016A3019F42D8198850D
:100F0000A1C06D3009F4A4C01885BA84D98488A022
:100F100083E58D150CF47FC08FE28B150CF47BC03C
:100F20008C8190E00197189F9001199F300D11243A
:100F3000C9018D0D911DD7FC9A95181619060CF054
:100F40006AC08D81819FC00111248B0D911DB7FC5A
:100F50009A95181619060CF05EC09D2CCD2CE62E25
:100F6000F12CEC2DED190E2E000CFF0B8C8190E076
:100F7000E817F9070CF04EC00197E817F90779F068
:100F8000E89E9001E99E300DF89E300D1124E20F8D
:100F9000F31F8E8D9F8DE80FF91F749001C0712C87
:100FA0006B2CAB2C2A2D2B19022E000C330B8D81B0
:100FB00090E0281739075CF570FE10C0113031F44D
:100FC0004A2D6C2DCE010E94C9061DC0012F212F74
:100FD000462D692DCE010E94440715C089A198A114
:100FE000891789F088A3113031F44A2D6C2DCE0178
:100FF0000E94C90607C0012F212F462D692DCE0161
:101000000E94440788A27694A394610ECBCFC39428
:10101000910EA7CF88A228853C818985329F800DBB
:10102000112489879F81992399F0082E000C990B30
:1010300044E550E0239F40195109112448175907EE
:101040003CF49D818A85299F800D11248A87198609
:1010500081E090E0DF91CF911F910F91FF90EF9091
:10106000DF90CF90BF90AF909F908F907F906F90C8
:101070000895E82F8435D0F46033C0F4862F859529
:10108000859585950E2E000CFF0BE15EFC4F94E5D7
:101090008902E00DF11D1124808190E0677002C08B
:1010A000959587956A95E2F78170089580E0089597
:1010B0003F924F925F926F927F928F929F92AF92E8
:1010C000BF92CF92DF92EF92FF920F931F93CF9335
:1010D000DF93782E662EC62ECC0C83E0E82EF12C02
:1010E00092E0992EDD24D394C62FD0E021978D2C49
:1010F000861A10921203109211031092100310928C
:101100000F038091DC01833021F4F0921203E0920E
:1011100011038091DA018530E0F0209111033091C4
:101120001203863081F028F4853099F4215031097A
:101130000CC0873029F0883061F42650310905C091
:101140002450310902C022503109309312032093F8
:10115000110361100BC08091D8019091D9018230A8
:1011600091050CF4B1C0D0921003AEC022E062121F
:101170001FC04091D6012091D8013091D9018091B2
:101180002E0190912F014E3158F0BC016C52710923
:10119000A901425E5F4F4617570714F4D09210031F
:1011A000225E3F4FC2972817390714F09092100320
:1011B00010920E034091D701042F10E0809111038B
:1011C0009091120358012FEFA21AB20AA80EB91E6D
:1011D0009501215031092B33310520F44F5F840FE5
:1011E00080930E032091DB01C8010896820F911DA8
:1011F0000197CB9750F0B50180E795E00E949113DD
:1012000080910F03882351F159C080910E03809380
:10121000D5015090D6015C0C7C9E500C1124482CBA
:10122000450C095F1F4F3090D501832D90E00817C2
:1012300019070CF3632D842D0E943908813011F4B5
:1012400080930F03632D852D0E943908813011F49E
:1012500080930F0333943092D501E5CF8091D6016E
:101260007C9E90017D9E300D1124A901480F511DD7
:1012700057FD24C04091D8015091D90160912E01B1
:1012800070912F0146175707CCF4909110039130BD
:1012900059F030F0923071F57C9E800D11240BC016
:1012A0007C9E800D112407C0240F351F3093D90177
:1012B0002093D8011FC08093D6011CC082E0781211
:1012C00019C07724739415CF4091D601403260F055
:1012D000809620912E0130912F012C5231098217D6
:1012E000930714F4D09210034F3108F461CF109299
:1012F00010035ECFDF91CF911F910F91FF90EF9080
:10130000DF90CF90BF90AF909F908F907F906F9025
:101310005F904F903F900895CF931092D501CEE00B
:10132000E091D501E835E0F5F0E0CF01880F991F95
:10133000E80FF91FEE51FE4F80816091D801709146
:10134000D90194E0899F90011124261B370B285E58
:101350003F4F24373105F0F42281880F880F2A305F
:1013600019F02B3049F48150861B6181660F660F9E
:10137000482F0E9499160EC0C29F90011124235439
:101380003F4F4181440F440F861B682F80E795E053
:101390000E9487058091D5018F5F8093D501C0CFD2
:1013A000CF9108950F931F93CF93DF931092D6019F
:1013B0005EE15093D7011092D9011092D80110929A
:1013C000DA011092DB011092DC0121E02093DD01B3
:1013D0001092DE01A3E0A093DF013091E0013230F2
:1013E00009F0B0C31092E2018BE08093E301109208
:1013F000E401A093E50149E04093E60195E0909374
:10140000E701E6E0E093E8018093E9011092EA0148
:10141000DCE0D093EB018093EC011092ED0162E1EE
:101420006093EE018093EF011092F00108E10093C8
:10143000F1018093F2011092F3011BE11093F4018A
:101440004093F5019093F6015093F7018093F801D2
:101450001092F90161E26093FA0158E05093FB01A8
:101460009093FC016093FD014093FE019093FF0176
:10147000F4E2F0930002809301021092020268E20B
:101480006093030240930402909305026AE2609322
:101490000602809307021092080260E3609309023B
:1014A00080930A0210920B0266E360930C02809311
:1014B0000D0210920E026CE360930F025093100223
:1014C000109211026093120250931302BAE0B0938B
:1014D000140262E4609315025093160210921702F0
:1014E00068E4609318025093190210921A026BE498
:1014F00060931B0290931C0290931D0260931E0246
:10150000E0931F02909320026EE4609321025093B7
:10151000220280932302609324028093250210927A
:10152000260261E56093270274E0709328022093FD
:10153000290267E560932A0280932B0210922C0205
:101540006CE560932D0240932E0290932F026DE57F
:1015500060933002809331021092320263E660930E
:101560003302809334021092350269E660933602AA
:1015700080933702109238026AE6609339025093E2
:101580003A0220933B026DE660933C0290933D0249
:1015900020933E026FE660933F02809340021092D8
:1015A000410260E760934202509343022093440259
:1015B00065E76093450280934602109247026EE70A
:1015C000609348028093490210924A026FE7609349
:1015D0004B0240934C0290934D0264E860934E029C
:1015E00080934F02109250026AE8609351028093F8
:1015F0005202109253026DE86093540240935502D8
:101600009093560260E960935702809358021092BB
:101610005902C1E9C0935A0267E060935B0290935C
:101620005C02C0935D0250935E0290935F02C6E934
:10163000C09360025093610210926202C0936302F1
:1016400050936402B0936502CBE9C0936602709335
:10165000670220936802CCE9C093690250936A0242
:1016600010926B02C2EAC0936C0250936D0210920A
:101670006E02C5EAC0936F0290937002909371025C
:10168000C0937202E093730290937402C8EAC0930D
:1016900075025093760280937702C093780280930C
:1016A000790210927A02CDEAC0937B0240937C02C9
:1016B00090937D02CEEAC0937E0280937F021092C7
:1016C0008002C3EBC0938102509382029093830205
:1016D000C09384024093850290938602C4EBC0932A
:1016E00087028093880210928902C9EBC0938A0214
:1016F00040938B0290938C02CAEBC0938D0280932F
:101700008E0210928F02C0ECC093900280939102DF
:1017100010929202C5ECC093930240939402E0931E
:101720009502C6ECC093960280939702109298029D
:10173000C7ECC093990260939A02E0939B02C09316
:101740009C0240939D0290939E02C9ECC0939F021D
:10175000B093A0027093A102CBECC093A20220939D
:10176000A3026093A402C093A502A093A602909343
:10177000A702C093A8029093A9029093AA02C093D3
:10178000AB026093AC029093AD02CCECC093AE027E
:101790008093AF021092B002CDECC093B102E093FF
:1017A000B2029093B302CFECC093B4029093B5020F
:1017B0006093B602C093B7026093B8029093B902E7
:1017C000C093BA02B093BB027093BC02B1EDB09368
:1017D000BD026093BE026093BF02B2EDB093C0023F
:1017E0008093C1021092C202BBEDB093C3028093FA
:1017F000C4027093C502BEEDB093C6025093C702F7
:101800004093C80251EE5093C9026093CA024093BC
:10181000CB025093CC028093CD027093CE0254EE53
:101820005093CF02E093D0024093D10257EE5093F1
:10183000D2028093D3027093D40258EE5093D50213
:10184000E093D6024093D7025BEE5093D802909378
:10185000D9024093DA025DEE5093DB028093DC0202
:101860007093DD028EEE8093DE027093DF02409370
:10187000E00281EF8093E102A093E2029093E30201
:101880008093E4029093E5029093E6028093E7024E
:101890006093E8029093E90244E150E050933101F3
:1018A0004093300187E280933201109233015093CC
:1018B00035014093340140E650E0509337014093A6
:1018C0003601109238012093390130933A014CE6E9
:1018D00050E050933C0140933B0190E190933D01D7
:1018E00010923E015093400140933F0140EA50E086
:1018F00050934201409341012093430120934401BE
:101900003093450148EA50E0509347014093460127
:10191000809348011092490150934B0140934A0132
:1019200044EE50E050934D0140934C0110924E0113
:1019300020934F013093500140EF50E050935201FB
:10194000409351011093530110925401509356014A
:101950004093550144E251E05093580140935701A0
:101960001092590120935A0130935B0140E651E0F7
:1019700050935D0140935C0190935E0110925F0172
:10198000509361014093600148E951E05093630135
:1019900040936201209364012093650130936601B6
:1019A00048E751E05093680140936701F093690163
:1019B00010926A0150936C0140936B0140EB51E02F
:1019C00050936E0140936D0130936F01209370012D
:1019D0003093710168EA71E0709373016093720152
:1019E00000937401109275017093770160937601F2
:1019F00064ED71E0709379016093780130937A011E
:101A000020937B0130937C0150937E0140937D01B4
:101A1000F0937F01109280015093820140938101E5
:101A200048EE51E050938401409383013093850147
:101A3000209386013093870144EB51E05093890154
:101A400040938801D0938A0110928B0150938D01AD
:101A500040938C0148EC51E050938F0140938E01EC
:101A600030939001209391013093920144E052E031
:101A700050939401409393018093950110929601A5
:101A8000509398014093970188E292E090939A01D5
:101A90008093990110929B0120939C0130939D01AA
:101AA00088E592E090939F0180939E011093A0019E
:101AB0001092A1019093A3018093A20188E892E083
:101AC0009093A5018093A4011092A6012093A701F1
:101AD0003093A80188EA92E09093AA018093A9012B
:101AE000D093AB011092AC019093AE018093AD0105
:101AF00080E193E09093B0018093AF012093B10116
:101B00002093B2013093B3014CEE52E05093B501F3
:101B10004093B401F093B6011092B7015093B9010C
:101B20004093B8019093BB018093BA013093BC01FC
:101B30002093BD013093BE0187EC93E090932F0179
:101B400080932E01DF91CF911F910F9108954F92B5
:101B50005F926F927F928F929F92AF92BF92CF923D
:101B6000DF92EF92FF920F931F93CF93DF9300D0FA
:101B700000D01F92CDB7DEB74091A2055091A305CA
:101B80006091A4057091A5052FB7F89480911B036F
:101B900090911C03A0911D03B0911E032FBF481B01
:101BA000590B6A0B7B0B8091A10590E0A0E0B0E09F
:101BB00000919D0510919E0520919F053091A005F3
:101BC00084179507A607B70730F4011511052105FD
:101BD000310509F0D8C280E0012B022B032B09F05C
:101BE000D2C30E94151280914805882309F4ADC024
:101BF00080915C058111A9C0809154059091550593
:101C0000E0915905F0915A05EE0FFF1FE80FF91FFB
:101C10002591349121153105F1F4209158052223A5
:101C200031F010925A0510925905FC0112C0109221
:101C3000480580914705882341F080E00E941512F5
:101C4000E0915905F0915A052DC080E00E94E911FC
:101C50007CC025913491C901969587959695879575
:101C600020FF53C0B901B6E076956795BA95E1F7C4
:101C70006F71932F96959695969590518F708230AF
:101C800081F108F5811117C06B3008F06AE06093AC
:101C90005D05E0915905F0915A053196F0935A058A
:101CA000E0935905EE0FFF1F809154059091550563
:101CB000E80FF91FCECF813061F740E087E495E06F
:101CC0000E94F804E6CF8330B1F0843011F78091A0
:101CD0004B05689F602D1124609364059093650502
:101CE000D8CF80914B05689F602D112460936005CB
:101CF00090936105CECF80914B05689F602D112494
:101D00006093620590936305C4CF8F7380935B05E6
:101D100080914B05839F802D112480935C05109248
:101D20006C0510926B0510926A0581E080935E0548
:101D300080931F0510925F058091590590915A0577
:101D4000019690935A058093590580915E058823EA
:101D500009F4E2C080915C05811103C00E94E91181
:101D6000DBC0815080935C0580916C05811146C079
:101D700020916A0530916B052F5F3F4FC901880F95
:101D8000991FE0916605F0916705E80FF91F6591CD
:101D90007491862F877080936D05AB0163E0569533
:101DA00047956A95E1F7CA0196958795972F96957D
:101DB000969590936E058F7390914B05899F802D1A
:101DC000112480936C05417040931A0330936B0586
:101DD00020936A058091680590E02817390770F014
:101DE00020916905222339F0821B910990936B059C
:101DF00080936A0503C080E00E94E91180916C0520
:101E0000815080936C0580915F0521E0280F20931D
:101E10005F0540915B0530916E05340F809153054D
:101E2000380F3093490560916205662371F070E0C8
:101E3000822F022E000C990B0E94801E8091630558
:101E4000869F300D1124309349058091490590E01B
:101E5000CB966BE370E00E94801E80934905309121
:101E60005D0530934A0560916005662381F0062E7A
:101E7000000C770B822F022E000C990B0E94801E03
:101E800080916105869F300D112430934A05609141
:101E900064056623A1F0822F220F990B70E00E9447
:101EA000801ECB0162E070E00E94801E20916505DB
:101EB00090914A05289F900D112490934A05809196
:101EC0004A054F3341F08A300CF089E087FD80E00D
:101ED00080934A0502C010924A05F894E0914905A2
:101EE000F0E0E350FE4FE491E093190380916F0519
:101EF00090914C05899F802D112490914A05899FCE
:101F0000802D112490916D05899F802D112480933F
:101F100020058093210578948091A805882309F4F1
:101F200082C08C3020F49CE0E92EE81A01C0E12C3C
:101F3000FF24F394F0927805109290051092910589
:101F4000309175054DE2D42E1D2D131B1E0D03E09F
:101F5000030F2EE4412F63E080E795E03D830E946C
:101F600044073D810CEF030F1D5F202F41E0612FDF
:101F700080E50E943613202F42E0612F83E00E940B
:101F80003613F0929005F092910500917505FD2CA5
:101F9000F01AFE0C2EE44F2D63E080E795E00E94DE
:101FA000210713E0100F1F0D4FEF410F2EE463E0E8
:101FB00080E795E00E942107035033E0F30E402FA5
:101FC0006F2D80E00E941E13402F6F2D83E50E942D
:101FD0001E1341E06F2D83E00E94A01242E06F2D9E
:101FE00080E50E94A012145044E0612F80E50E9419
:101FF000A01248E0612F83E00E94A01284E0809349
:10200000790580917505E81A8E2D815D80937A059A
:102010008091A6059091A7050E947F128091A80546
:1020200081508093A80580913E0590913F05892BB2
:1020300009F47FC011E010939005109291059091E2
:10204000740585E5891B8093790510927A05609166
:102050003B05613009F44EC030F080913A0565309F
:1020600008F060C05BC080E00E94FE11109378050C
:10207000E6E6F2E0E491EF5FE0937405E7E6F2E074
:10208000E491EF5FE093750588E692E090938F0509
:1020900080938E0510923F0510923E0510927605B2
:1020A00018EA0E94A70D8823E1F388E592E00E94D8
:1020B0007F1240913C0550913D0560E070E02AE0C0
:1020C00080E795E00E94FB0283E492E00E947F1289
:1020D000612F62956F7070E080E795E00E94911328
:1020E00088E392E00E947F1280913705813009F0E9
:1020F00030C11FC08091930590919405A0919505E2
:10210000B09196058F709927AA27BB270897A1053C
:10211000B10510F467E009C068E707C0882349F0FB
:102120006B5F03C0882329F06FE280E795E00E948F
:10213000DF020E94E6138091760581110EC088EFC0
:1021400091E0EFE1F3E0DF019C011D92215030406E
:10215000E1F71092790510927A050E944F0460937E
:102160009D0570939E0580939F059093A0052091F7
:10217000990530919A05621B730B709398056093D3
:10218000970580E000C12FB7F89480911B039091D0
:102190001C03A0911D03B0911E032FBF2091A10528
:1021A000820F911DA11DB11D8093A2059093A305DF
:1021B000A093A405B093A5058091930590919405F3
:1021C000A0919505B09196050196A11DB11D809332
:1021D000930590939405A0939505B093960510925E
:1021E0009D0510929E0510929F051092A0050E94D9
:1021F0004F046093990570939A0580939B05909383
:102200009C0580912305909124052FE0289F800153
:10221000299F100D112485E10E943804800F911F21
:1022200024E0969587952A95E1F79093240580936D
:10223000230520912205222309F44BC06091260535
:10224000262F30E040E050E029833A834B835C83C3
:10225000C0902705D12CE12CF12C40912A055091FA
:102260002B054A01A12CB12C20912805309129057C
:102270002901612C712C8217930728F09C014817C3
:10228000590708F49A01C901A0E0B0E09C01AD0132
:10229000241935094609570969817A818B819C8106
:1022A0006C197D098E099F090E94641EA501940185
:1022B00024193509460957090E94DD1FC20ED31E95
:1022C000E41EF51EC09225056C2D70E085E00E948D
:1022D000D9030E94261480913E0590913F05892BD9
:1022E000B1F1809146058F7169F584E10E9438044F
:1022F000BC01990F880B990B0E94DF1E26EE3FE36D
:102300004EEC50E40E94431F0E94AE1E9B0170934E
:102310003D0560933C05672B91F084E080933B057D
:10232000EEE3F5E080E0419151912417350718F470
:1023300080933B050CC08F5F8430A9F703C08FEFFB
:1023400080933B05809146058F5F8093460581E031
:102350001AC0115009F0A5CE60E070E085E00E943F
:10236000D90383B7817F846083BF83B7816083BFD4
:1023700083B7816083BF889583B78E7F83BF83B720
:102380008E7F83BF8ECE0F900F900F900F900F9087
:10239000DF91CF911F910F91FF90EF90DF90CF9041
:1023A000BF90AF909F908F907F906F905F904F9075
:1023B0000895CF93DF930E947F12EC0163E271E0F6
:1023C00080E795E00E94E6028C0F9D1FDF91CF9180
:1023D0000895811112C010925E0510925C05109252
:1023E0006B0510926A0510925F05109221051092FC
:1023F000200510921F050C9432050895811114C018
:1024000010925E0510925C0510926B0510926A05A1
:1024100010925F05109221051092200510921F0561
:102420000E943205109248050895AF92BF92CF9254
:10243000DF92EF92FF920F931F93CF93DF93C82EFB
:10244000D12CE601CE5DDA4F9DA1992309F44CC051
:102450007E019FEFE91AF90AF70195A1911144C095
:102460009EA58601000F111F0E5D1A4FF80134A5BD
:1024700025A5E32FF22FE90FF11DE90FF11D25919D
:1024800034912F3FFFEF3F0711F41DA22DC039AB50
:10249000F601EE0FFF1FE45DFA4F3327220F331FC3
:1024A00005A0F6A1E02DE20FF31FA590B4908111D5
:1024B00017C00E94FE11F801B3AAA2AAF601EE0FFE
:1024C000FF1FEC5CFA4F16A215A281E0F70185A36D
:1024D00089E08BAF1EAEFE017B9615A2329615A247
:1024E00029968DA18F5F8DA3DF91CF911F910F91C1
:1024F000FF90EF90DF90CF90BF90AF9008950F9333
:102500001F93CF93DF938C01C0E0D0E0F801EC0F74
:10251000FD1F6491662371F0E0917005F0917105E3
:102520000190F081E02D80E795E00995892B11F06D
:102530002196ECCFCE01DF91CF911F910F9108959D
:10254000AF92BF92CF92DF92EF92FF920F931F93C1
:10255000CF93DF93182F062FC1E0D3E08AEFD82E58
:102560009EEFE92E842F8470C82E842F8270B82E9F
:10257000842F8870A82E4170F42E8C2F880F8F5FC7
:10258000E80ECC2081F04D2F400F6C2F610F80E7BB
:1025900095E00E94C9064C2F400F6D2F610F80E718
:1025A00095E00E94C906BB2081F0402F4D1B6C2F87
:1025B000610F80E795E00E94C906402F4C1B6D2FEC
:1025C000610F80E795E00E94C906AA2081F04C2F98
:1025D000400F612F6D1B80E795E00E94C9064D2FCB
:1025E000400F612F6C1B80E795E00E94C906FF2019
:1025F00081F0402F4C1B612F6D1B80E795E00E94FE
:10260000C906402F4D1B612F6C1B80E795E00E948F
:10261000C906CD1744F4E7FC04C0D150D394D39439
:10262000ED0CCF5FAACFDF91CF911F910F91FF905B
:10263000EF90DF90CF90BF90AF9008950F931F93CE
:10264000CF93DF93182F062FD42FC0E0CD174CF473
:102650004C2F400F612F80E795E00E94C906CF5FA5
:10266000F5CFDF91CF911F910F9108959F92AF9277
:10267000BF92CF92DF92EF92FF920F931F93CF936F
:10268000DF93F82EE62EB22E03E0020FD0E0C3E077
:102690008AEFC82E1EEF842F8170982EAA24A3944F
:1026A000A20E4270D42EDF5F802F8B19180F992055
:1026B00081F04C2F440F4A0D6E2D6C1B8D2F8F0D0A
:1026C0000E941E13402F6E2D6D1B8C2F8F0D0E94AC
:1026D0001E13DD2081F04C2F440F4A0D6E2D6C1B14
:1026E0008F2D8D1B0E941E13402F6E2D6D1B8F2D65
:1026F0008C1B0E941E13DC1744F417FD04C0C1504C
:10270000C394C3941C0D0E5FCECFDF91CF911F9168
:102710000F91FF90EF90DF90CF90BF90AF909F9080
:102720000895CF92DF92EF92FF920F931F93CF9372
:10273000DF936B01770FEE08FF08F7FE1BC0EC017B
:102740006DE20E94DF028C0144275527BA014C1923
:102750005D096E097F092AE0CE010E94FB02800F0D
:10276000911FDF91CF911F910F91FF90EF90DF901C
:10277000CF9008952AE0B701A601DF91CF911F9174
:102780000F91FF90EF90DF90CF900C94FB02CF93CE
:10279000C82FF89460E080917F050E946D038091BE
:1027A000800518161CF460E00E946D03CEBD000089
:1027B0000DB407FEFDCF8EB58091800518161CF470
:1027C00061E00E946D037894CF9108950F931F9359
:1027D000CF9380917C058F5F80937C050FE113E0A0
:1027E000C0E08C2F80640E94C71380E80E94C7134A
:1027F00061E080917F050E946D038091800518162D
:102800001CF460E00E946D0380E090E0F801E80FA6
:10281000F91F20812EBD00000DB407FEFDCF2EB59F
:1028200001968435910591F78091800518161CF466
:1028300061E00E946D03CF5F0C5A1F4FC63089F6CE
:1028400080E4CF911F910F910C94C713CF92DF9228
:10285000EF92FF920F931F93CF93DF93CCE2D5E0DB
:1028600003E315E0FF24FA9497E0E92EE00E62E01E
:1028700088810E949D03288130E0F901E65EFB4FCC
:102880008491F901EA5FFB4FC490F901EE50FC4FCF
:10289000D490DD2071F081110E944403ED2DF0E011
:1028A000EE0FFF1FE851FC4FA591B491EC91EC2184
:1028B000B1F4F80180818F5F808360E088810E949D
:1028C0009D0321960F5F1F4FE012D1CFDF91CF9173
:1028D0001F910F91FF90EF90DF90CF900895F80136
:1028E0008081882371F3F8018F3F11F41082E5CFC6
:1028F000F082E3CF2F923F924F925F926F927F923E
:102900008F929F92AF92BF92CF92DF92EF92FF92FF
:102910000F931F93CF93DF93EC018B0181E08093A2
:102920007805109277051092760510923A058093FB
:102930009005809391058CE0782E9EE2892E94E09C
:10294000992E29E0622E3FE1C32E33E0D32E48EFCB
:10295000A42EBB24B3945EEFE52E5FE3F52E0E9418
:10296000A70D8823E1F3FE018491882319F050908C
:10297000750501C0512C2DE934E040E060E080E7AE
:1029800095E00E9487050115110541F04CE0450DC9
:10299000980160E080E795E00E9487051092790534
:1029A00070927A05CE010E947F1280917405982F53
:1029B000990F890F81958D5A8093790580917505BE
:1029C000982F990F890F8195835D80937A05809167
:1029D000930584FF03C089E994E002C085E994E08F
:1029E0000E94D91180917405982F990F890F8195B4
:1029F0008D5A8093790580917A058F5F80937A054F
:102A000080914C05882319F081E994E002C08DE89B
:102A100094E00E94D91180917405982F990F890F25
:102A200081958D5A8093790580917A058F5F809387
:102A30007A0589E894E00E94D91150903805F1E0B8
:102A40005F1609F44FC0809137058130B9F080914D
:102A50009205482F50E060E070E0209093053090A0
:102A60009405409095055090960524163506460627
:102A7000570608F45CC08F3F09F459C08FEF80936C
:102A8000920580E00E94FE1180E00E94FE1184E326
:102A900094E0909355058093540510925A05109236
:102AA000590581E08093480599E090935D05109267
:102AB0006005109262051092640580933A05DF91DB
:102AC000CF911F910F91FF90EF90DF90CF90BF902B
:102AD000AF909F908F907F906F905F904F903F90BE
:102AE0002F90089580914C058F5F082E000C990B54
:102AF00060914D0570E06F5F7F4F0E94801E809354
:102B00004C0580E00E94FE1190925505809254057C
:102B100010925A05109259055092480560925D0531
:102B20001092600510926205109264058CCF80911E
:102B30003905813009F013CFF601C50111920197D3
:102B4000E9F71092790510927A0581E694E00E94E7
:102B50007F120E94E6138CB583608CBD8DB58E7F8D
:102B60008DBD86E291E0F7010995109276058CE320
:102B700094E00E94D9110E94E6130E9426148091CD
:102B80003705813009F4EBCE62E370E080E090E03D
:102B90000E947404F2CF2F923F924F925F926F92F5
:102BA0007F928F929F92AF92BF92CF92DF92EF92DD
:102BB000FF920F931F93CF93DF9300D000D000D0EC
:102BC000CDB7DEB7282E762F7A0121111FC09A01CA
:102BD000462F682F80E795E026960FB6F894DEBF63
:102BE0000FBECDBFDF91CF911F910F91FF90EF905E
:102BF000DF90CF90BF90AF909F908F907F906F901D
:102C00005F904F903F902F900C948705FA0194911C
:102C100031963491492E512C6201F7E0CF0ED11C30
:102C200083E0D594C7948A95E1F71D8240E8A42EED
:102C3000B12C832E912C91509E83ED818E2FEE0F1F
:102C4000990B841595050CF05BC00D8107FD095F9C
:102C50000595059505958D81877887FF03C081507F
:102C6000886F8F5F350102C0759467948A95E2F78B
:102C7000312C002E000C110B0E5F1F4F4E818D81E9
:102C8000481B4983832D032C000C990B881599054B
:102C90009CF58C9DF0018D9DF00D9C9DF00D1124F7
:102CA000E00FF11FEE0DFF1DE491F0E0E621F721AA
:102CB000EF2B01F1222361F0522F537020FF02C04D
:102CC000698101C06D8121FF07C0432F431905C0F1
:102CD000432D6D8150E001C0432D620D470F80E709
:102CE00095E03A835B837C830E94C9065B81252F34
:102CF0007C813A813394C6CF9D819F5F9D839DCF18
:102D000026960FB6F894DEBF0FBECDBFDF91CF91F0
:102D10001F910F91FF90EF90DF90CF90BF90AF90F9
:102D20009F908F907F906F905F904F903F902F90EB
:102D30000895CF92DF92EF92FF920F931F93CF935C
:102D4000DF93C82FD62F142F20E330E0261B310944
:102D500067FD339537FF03C0319521953109812FE8
:102D6000012E000C990B8C1B9109C7FD939597FFC1
:102D700003C0919581959109DD24D394821793071F
:102D80001CF0D12C20E305C0212F8C2FCD2FD82F64
:102D900010E31C1734F48D2FD22F282F8C2FC12F26
:102DA000182FE12EEC1A822F022E000C990B8D1B8E
:102DB0009109D7FD939597FF03C09195819591094E
:102DC000F82E0E2DE7FE02C001E00E0D0595D2177C
:102DD0001CF0CC24CA9411C0CC24C3940EC0DD20B6
:102DE00079F04C2F6D2F80E795E00E94C9060F19EE
:102DF00007FF02C0DC0D0E0DCF5F1C1784F703C068
:102E00004D2F6C2FF0CFDF91CF911F910F91FF903D
:102E1000EF90DF90CF900895CF93DF9300D000D054
:102E200000D0CDB7DEB7789484B5826084BD84B518
:102E3000816084BD85B5826085BD85B5816085BDB5
:102E400080916E00816080936E001092810080916D
:102E500081008260809381008091810081608093F5
:102E60008100809180008160809380008091B1001A
:102E700084608093B1008091B00081608093B00045
:102E800080917A00846080937A0080917A008260D9
:102E900080937A0080917A00816080937A0080919B
:102EA0007A00806880937A001092C10082E3809358
:102EB000A10581E090E0A0E0B0E080939D059093B3
:102EC0009E05A0939F05B093A0058FEF8093920578
:102ED000E0E8F7E7259134912130304C09F04BC000
:102EE000E6E9F7E7E491E0937B05E7E9F7E7E491AA
:102EF000E0932605E8E9F7E7E491E0932705E9E99F
:102F0000F7E7859194919093290580932805EBE943
:102F1000F7E78591949190932B0580932A05EDE92D
:102F2000F7E7E491E0934D05EEE9F7E7E491E093EC
:102F30004C05EFE9F7E7E491E0939205E0EAF7E763
:102F40008591949190933F0580933E05E2EAF7E7DF
:102F5000859194919093410580934005E4EAF7E7C9
:102F6000859194919093430580934205E6EAF7E7B3
:102F7000859194912CC09CE390937B05109226053B
:102F80008093270580E293E090932905809328059C
:102F900084ED93E090932B0580932A0581E0809344
:102FA0004D0580934C058CEA9DE090933F058093FE
:102FB0003E058EED9DE0909341058093400584E7AA
:102FC0009EE090934305809342058CE39FE09093AD
:102FD00045058093440511E0109322056FEF70E0E2
:102FE00085E00E94D90388E080932C0589E08093D6
:102FF0002D0587E080932E0586E080932F0504E061
:103000000093300582E08093310581E180933205A1
:103010000E9426148CE39FE090933D0580933C052D
:1030200000933B05109346058BE080937E058DE071
:1030300080937D0580E180937F058EE080938105FC
:103040008FE080938005109378051093900510927F
:10305000910510937705E6E6F2E0E491EF5FE093E7
:103060007405E7E6F2E0E491EF5FE093750588E62A
:1030700092E090938F0580938E051FB7F89480910E
:10308000E101811127C0ECEFF3E08491E0E1F4E08D
:103090009491E82FF0E0EE0FFF1FEC58FF4FA59141
:1030A000B491EC91E92321F461E08AE00E946D0380
:1030B00061E08AE00E949D038CB580618CBD8CB577
:1030C00080648CBD61E08DE00E949D0361E08BE037
:1030D0000E949D038091E1018F5F8093E1011FBFFA
:1030E0008CB58F7D8CBD8CB58C7F81608CBD8DB592
:1030F00081608DBD8CB58C608CBD61E080917E055A
:103100000E949D0361E080917D050E949D0361E026
:1031100080917F050E949D038091810518161CF403
:1031200061E00E949D038091800518161CF461E007
:103130000E949D0380918105181674F460E00E943E
:103140006D036AE070E080E090E00E94740461E04A
:10315000809181050E946D0380917D05082E000CF1
:10316000990BFC01EE50FC4FE491F0E0EE0FFF1FD5
:10317000E258FF4F259134913093850520938405C3
:10318000FC01EA5FFB4FE491E0938B0580917E05A3
:10319000082E000C990BFC01EE50FC4FE491F0E07E
:1031A000EE0FFF1FE258FF4F2591349130938305B6
:1031B00020938205FC01EA5FFB4FE491E0938A05CE
:1031C00080918005082E000C990BFC01EE50FC4FFD
:1031D000E491F0E0EE0FFF1FE258FF4F259134918C
:1031E0003093870520938605FC01EA5FFB4FE4914D
:1031F000E0938C0580917F05082E000C990BFC0153
:10320000EE50FC4FE491F0E0EE0FFF1FE258FF4F4D
:10321000259134913093890520938805FC01EA5F5C
:10322000FB4FE491E0938D0581E20E94C71384E196
:103230000E94C71380917B0587FF03C08FE78093AF
:103240007B0580917B0580680E94C71380E20E9405
:10325000C7138CE00E94C7130E94E61311E010937D
:103260004B0584E080936F0580E790E090935705CD
:103270008093560540E060E087E495E00E94F80402
:1032800061E070E083E00E94D9038091B100887F03
:1032900081608093B100F8941092800010928100B8
:1032A000109285001092840088E191E0909389004B
:1032B0008093880080918100886080938100809154
:1032C000810081608093810080916F008260809393
:1032D0006F00789480913805813009F03AC21092DD
:1032E0004C0580919205882331F067E970E086E90A
:1032F00090E00E947A1410923A0581E08093E001F8
:1033000080E5E82EF12C1BE09CE0C92ED12C26E0B4
:10331000A22EB12C32E3832E912C0CE0302E0E9491
:10332000A70D882309F40DC23091E001832F81702D
:10333000582E30FF97C00BE024E540E060E080E7C6
:1033400095E03E830E94440724E545E260E080E783
:1033500095E00E944407109290051092910507E0B5
:103360002EE142E06BE180E795E00E944407509235
:103370009005509291058CE18093790583E08093CC
:103380007A053E81313051F0333009F065C06BE190
:1033900071E080E795E00E94E6025EC063E171E0C3
:1033A00080E795E00E94E60229E431E04CE067E026
:1033B00080E795E00E9487052DEB30E041E260E078
:1033C00080E795E00E9487052DEB30E041E268E15F
:1033D00080E795E00E9487052DEB30E041E260E355
:1033E00080E795E00E9487052DEB30E041E268E43C
:1033F00080E795E00E9487052CEB31E04CE163E12A
:1034000080E795E00E94870521E131E049E16FE224
:1034100080E795E00E9487052BE331E045E167E313
:1034200080E795E00E9487052BE331E049E167E3FF
:1034300080E795E00E9487052BE331E04DE167E3EB
:1034400080E795E00E9487052FE131E049E16BE3D9
:1034500080E795E00E94870580913805813009F06A
:1034600070C190C10E948C098091DA018630B1F15F
:1034700020F4853009F446C05CC0873049F08830BC
:1034800009F057C08091D70186508093D70151C071
:103490000091D701BCEF5B2E500E2090D601652D18
:1034A000822D0E943908811141C0A4E04A2E420CAD
:1034B000652D842D0E943908811138C00350602F7A
:1034C000822D0E943908811131C0602F842D0E9405
:1034D000390881112BC05092D7012BC00091D70120
:1034E00002505090D601602F852D0E94390881111D
:1034F00051C1602F84E0850D0E943908882309F4AA
:103500004BC148C10091D70101505090D601602FA6
:10351000852D0E943908811142C1602F84E0850DFC
:103520000E943908882309F437C139C186E08093A5
:10353000DA018091DA01823018F081508093DA014B
:103540008091DA01843008F03DC00091DB014090A9
:10355000D60101110FC08091DC01833059F45090E5
:10356000D70167E0650D82E0840D0E943908813043
:1035700009F417C15090D70198E0950D692F842D5B
:103580009E830E9439089E81811125C1F4E02F2E6F
:10359000240C692F822D0E94390881111CC153947B
:1035A0005092D701043018F40F5F0093DB011092A2
:1035B000D5019091DB019B835090D5012B81521650
:1035C00008F4F3C08091DC018330A1F080913805CC
:1035D000813009F409C18091350581508E3F08F092
:1035E00006C18091DC01823011F481E001C082E0EB
:1035F0008093DC018091DE0190E00196B7010E948A
:10360000801E8093DE0180913905813051F48091D4
:103610009205882331F060E070E08CEF91E00E9429
:103620007A148091360581508E3F08F0E7C083E020
:103630008093DC0180913805813049F48091DC0170
:10364000833029F08091DA01882309F4F2C0809157
:10365000350581508E3F08F09AC18091DD018111BE
:103660009DC181E08093DD0110929005109291053B
:1036700000E324E540E060E080E795E00E94440735
:1036800081E080939005809391050E948C09809140
:10369000DD01811192C14091DC018AE0489FA001C7
:1036A00011244C525E4F21E06091D7018091D601E8
:1036B0000E94CB158091DE01823008F492C198ED12
:1036C000980F923008F48DC193ED980F923008F462
:1036D00088C18A55823008F484C11092D5012AE04D
:1036E000222E0091D5010D3008F48AC18091D701B6
:1036F0008153833338F48091DF0181508093DF015F
:103700000E94D2098091D601843528F08091E00191
:103710008F5F8093E00140E002E04D3009F02AC263
:103720001092D5010091D501202F30E080912E011B
:1037300090912F01B4010E94801E261737070CF4C8
:1037400086C280E090E0892B09F4E9CD0E94000058
:10375000E4CD80E00E94FE1188E890E0909355054A
:103760008093540510925A051092590510934805FC
:1037700089E080935D0510926005109262051092B9
:103780006405AFCD8091E0018F5F8093E0010E94DE
:10379000D209D7CF85E0CBCE0093D701CACE84E043
:1037A000C6CE5A945092D701E5CE0091D70198E049
:1037B000900F692F842D9E830E9439089E8181116C
:1037C00006C0692F822D0E943908882349F053943E
:1037D0005092D501F1CE1092DB011092DA01F2CEB7
:1037E0000F5F0093D701F3CF1092DC01F4CE8091EC
:1037F000330581508E3F08F0FDCEF3CE8091DC0181
:10380000833009F017CF5090D7010091D601652D74
:10381000802F0E943908813009F40CCF652D84E097
:10382000800F0E943908813009F404CF1092DC0126
:1038300001CF5090D70144244A94450C0091D60101
:10384000642D802F0E943908811108C0642D84E006
:10385000800F0E943908882309F489C08091DA0119
:10386000853089F4EEEF4E2E450C642D802F0E949A
:103870003908811108C0642D84E0800F0E94390846
:10388000882309F478C08091DA01863011F57CEF45
:10389000272E250C622D802F0E943908811119C016
:1038A00064E0462E400E622D842D0E94390881115D
:1038B00010C05DEF252E250C622D802F0E94390847
:1038C000811107C0622D842D0E943908882309F4D4
:1038D00056C08091DA01873001F54AEF242E250C7D
:1038E000622D802F0E943908811117C034E0432EC9
:1038F000400E622D842D0E94390881110EC03BEFCD
:10390000530E652D802F0E943908811106C0652D48
:10391000842D0E9439088823B1F107E000935D05EA
:1039200040E060E087E495E00E94F80480914B0558
:10393000809360059FEF90936105809362050093EB
:10394000630510925B05982F990F990F890F80934B
:103950005C0510926C0510926B0510926A0581E06F
:1039600080935E0580931F0510925F0570CE85E001
:103970008093DA0173CF86E08093DA0184CF87E009
:103980008093DA01A6CF88E08093DA01C6CF8091D8
:10399000330581508E3F08F078C17FC18091DC01F2
:1039A00062E003C08091DC0160E0833011F481E0CB
:1039B00001C082E00E94580857CE813009F07ACECB
:1039C0002091DC019AE0299F900111242C523E4F56
:1039D0004091D7016091D60180E795E00E9487056C
:1039E00069CE4091D7018091DC01480F4E5F609114
:1039F000D6016F5F23E080E795E00E9421076DCE3E
:103A0000109FC0011124DC01A05DBE4FBD83AC83BB
:103A100019968C911997882309F4A8C0E091D801D0
:103A2000F091D9018D919C9111979F01275A3F4F99
:103A3000281739070CF49AC02256310982179307C8
:103A40000CF494C01A962C911A9721113EC0189626
:103A50002C912130E9F078F0223009F087C0AC8158
:103A6000BD8113964C911397249EA0011124455AB1
:103A70005E4F82504DC0AC81BD8113962C9113973F
:103A80002695329E900111242C553E4F682F67C019
:103A9000AC81BD8112964C90582E5E1A2DE931E012
:103AA000442D652D80E795E00E948705EC81FD811E
:103AB0008381817089831A8229813A81220F331F81
:103AC00089819A81280F391F44C0AC81BD81189625
:103AD0002C91213021F188F0223009F047C0AC81CF
:103AE000BD8113962C911397229E90011124255A83
:103AF0003E4F52E0580F652F32C0AC81BD81139606
:103B00004C9113974695349EA00111244C555E4F5D
:103B100021E012966C918E1B0E94CB1527C0AC81C0
:103B2000BD8112964C90582E5E1A2DE931E0442D3D
:103B3000652D80E795E00E948705EC81FD818381FA
:103B400080FB662460F8712C9301220F331F260D31
:103B5000371D29563E4F46E0440D652D03C06E1BB0
:103B600012964C9180E795E00E9487050F5F0093C5
:103B7000D501B7CD242F30E0129FF001139FF00D37
:103B80001124E05DFE4F8185882309F459C08085AA
:103B9000813089F018F0823021F135C0838190E0C6
:103BA00001968770992783835EEF580F543058F53C
:103BB00080FD29C020C0838190E00196B6010E945B
:103BC000801E8383528560817181650F711D6150F4
:103BD00071097183608306970CF067C082818F5FE3
:103BE00066C0838190E00196B5010E94801E8383A8
:103BF0008350823040F4528580819181850F911DE0
:103C0000019791838083129FF001139FF00D11247F
:103C1000E05DFE4F808191816481758186179707F1
:103C20000CF40287129FF001139FF00D1124E05D48
:103C3000FE4F26813781281739073CF4128605C0CC
:103C40008381882311F0815083834F5F66CD20915B
:103C5000D8013091D901B2E30B9FC0011124821B1E
:103C6000930B0F968B36910560F4E2E30E9F602D67
:103C70001124621B29E431E042E080E795E00E94D4
:103C800087050F5F0093D5014DCD8091DC01833016
:103C900009F4EACC1092DC01E7CC8091DD0181309F
:103CA00009F080CE1092DD01DFCC828181508283C9
:103CB000AACF10927305109272058FE091E0909355
:103CC0007105809370050895DB018F939F930E9487
:103CD000FC1FBF91AF91A29F800D911DA39F900DDE
:103CE000B29F900D11240895991B79E004C0991F8B
:103CF000961708F0961B881F7A95C9F78095089546
:103D000097FB072E16F4009407D077FD09D00E9488
:103D1000941E07FC05D03EF4909581959F4F089521
:103D2000709561957F4F0895AA1BBB1B51E107C099
:103D3000AA1FBB1FA617B70710F0A61BB70B881F3B
:103D4000991F5A95A9F780959095BC01CD010895CA
:103D5000EE0FFF1F0590F491E02D09940E94221FA1
:103D600088F09F5798F0B92F9927B751B0F0E1F03C
:103D7000660F771F881F991F1AF0BA95C9F714C0EC
:103D8000B13091F00E943C1FB1E008950C943C1FAB
:103D9000672F782F8827B85F39F0B93FCCF3869525
:103DA00077956795B395D9F73EF490958095709582
:103DB00061957F4F8F4F9F4F0895E89409C097FBFF
:103DC0003EF490958095709561957F4F8F4F9F4FF2
:103DD0009923A9F0F92F96E9BB279395F695879536
:103DE00077956795B795F111F8CFFAF4BB0F11F4F9
:103DF00060FF1BC06F5F7F4F8F4F9F4F16C08823A0
:103E000011F096E911C0772321F09EE8872F762FD5
:103E100005C0662371F096E8862F70E060E02AF016
:103E20009A95660F771F881FDAF7880F9695879502
:103E300097F9089557FD9058440F551F59F05F3F6B
:103E400071F04795880F97FB991F61F09F3F79F0BC
:103E500087950895121613061406551FF2CF46953E
:103E6000F1DF08C0161617061806991FF1CF8695C0
:103E70007105610508940895E894BB2766277727A4
:103E8000CB0197F908950E94561F0C94C71F0E94FA
:103E9000B91F38F00E94C01F20F0952311F00C9438
:103EA000B01F0C94B61F11240C943D1F0E941A1FC2
:103EB00070F3959FC1F3950F50E0551F629FF0017D
:103EC000729FBB27F00DB11D639FAA27F00DB11D96
:103ED000AA1F649F6627B00DA11D661F829F22271F
:103EE000B00DA11D621F739FB00DA11D621F839FA6
:103EF000A00D611D221F749F3327A00D611D231F7C
:103F0000849F600D211D822F762F6A2F11249F57C9
:103F100050409AF0F1F088234AF0EE0FFF1FBB1FCC
:103F2000661F771F881F91505040A9F79E3F51058B
:103F300080F00C94B01F0C943D1F5F3FE4F3983E5B
:103F4000D4F3869577956795B795F795E7959F5F35
:103F5000C1F7FE2B880F911D9695879597F90895C7
:103F600097F99F6780E870E060E008959FEF80EC2C
:103F7000089500240A9416161706180609060895CF
:103F800000240A9412161306140605060895092E35
:103F90000394000C11F4882352F0BB0F40F4BF2BA4
:103FA00011F460FF04C06F5F7F4F8F4F9F4F0895E4
:103FB00081E090E0F8940C943820052E97FB1EF4D5
:103FC00000940E94F41F57FD07D00E94072007FCB1
:103FD00003D04EF40C94F41F5095409530952195E4
:103FE0003F4F4F4F5F4F0895909580957095619525
:103FF0007F4F8F4F9F4F08950E942920A59F900DBE
:10400000B49F900DA49F800D911D11240895A1E2ED
:104010001A2EAA1BBB1BFD010DC0AA1FBB1FEE1F42
:10402000FF1FA217B307E407F50720F0A21BB30B8D
:10403000E40BF50B661F771F881F991F1A9469F709
:1040400060957095809590959B01AC01BD01CF0165
:104050000895A29FB001B39FC001A39F700D811D61
:104060001124911DB29F700D811D1124911D089581
:04407000F894FFCFF2
:10407400010000A905800001000000000000006D9F
:1040840007B2024C6576656C2031004C6576656C30
:0E4094002032000D0A004C4F414445520000FE
:00000001FF
